:100000000C9460010C94C0120C94CA120C94D4127B
:100010000C94DE120C94E8120C94F2120C94FC1264
:100020000C942C130C947F010C947F010C943411CC
:100030000C9495100C941E110C94A0120C94521058
:100040000C94751C0C9436130C944E0E0C947F017A
:100050000C94CA0E0C947F010C947F010C947F01C8
:100060000C9429110C941F100C94FE0F0C94091081
:100070000C9414100C9432100C94E10F0C947F012A
:100080000C94F30F0C947F010C947F0149140D150F
:100090007D1581158915D41543144E165C16691605
:1000A000BC166E17B617BA1720183B1841187918E6
:1000B0002A194E1963191F1A491A000021104220EB
:1000C00063308440A550C660E770088129914AA139
:1000D0006BB18CC1ADD1CEE1EFF1311210027332B0
:1000E0005222B5529442F772D662399318837BB389
:1000F0005AA3BDD39CC3FFF3DEE362244334200440
:100100000114E664C774A44485546AA54BB52885D8
:100110000995EEE5CFF5ACC58DD55336722611168F
:100120003006D776F6669556B4465BB77AA7199728
:100130003887DFF7FEE79DD7BCC7C448E558866817
:10014000A7784008611802282338CCC9EDD98EE978
:10015000AFF9488969990AA92BB9F55AD44AB77AEF
:10016000966A711A500A333A122AFDDBDCCBBFFBC8
:100170009EEB799B588B3BBB1AABA66C877CE44CFF
:10018000C55C222C033C600C411CAEED8FFDECCD18
:10019000CDDD2AAD0BBD688D499D977EB66ED55ECF
:1001A000F44E133E322E511E700E9FFFBEEFDDDF68
:1001B000FCCF1BBF3AAF599F788F8891A981CAB1F4
:1001C000EBA10CD12DC14EF16FE18010A100C23026
:1001D000E3200450254046706760B9839893FBA3E1
:1001E000DAB33DC31CD37FE35EF3B1029012F32276
:1001F000D2323542145277625672EAB5CBA5A89531
:1002000089856EF54FE52CD50DC5E234C324A014C5
:1002100081046674476424540544DBA7FAB79987C0
:10022000B8975FE77EF71DC73CD7D326F236910615
:10023000B01657667676154634564CD96DC90EF908
:100240002FE9C899E9898AB9ABA944586548067865
:100250002768C018E1088238A3287DCB5CDB3FEB20
:100260001EFBF98BD89BBBAB9ABB754A545A376AB5
:10027000167AF10AD01AB32A923A2EFD0FED6CDDF0
:100280004DCDAABD8BADE89DC98D267C076C645C05
:10029000454CA23C832CE01CC10C1FEF3EFF5DCF00
:1002A0007CDF9BAFBABFD98FF89F176E367E554E55
:1002B000745E932EB23ED10EF01E00081C1814106E
:1002C00011241FBECFEFD0E1DEBFCDBF11E0A0E013
:1002D000B1E0E4E7FDE300E00BBF02C007900D9240
:1002E000A032B107D9F719E0A0E2B1E001C01D9238
:1002F000AA30B107E1F70E94A91A0C94B91E0C9418
:1003000000008FB7F894992708958FBF089586B796
:100310000895FC01CB016183272F332720830895A3
:100320002FB7F8943327EDE8F7E0E80FF11D1082BE
:100330002FBF089580E00E9490010895FC0143833F
:10034000BB27A72F962F852F8283CB01AA27BB27F8
:100350008183872F9927AA27BB278083CB01BA01E6
:1003600008958E960E949E0108952FB7F894332722
:1003700080938E072FBF0895FC01CB016083272F48
:100380003327218308958FB7F894282F332740E02F
:100390009091B9088091BA08981709F441E02FBFED
:1003A000842F9927089510925601109255011092AA
:1003B000B50710927B0810927F081092A007109248
:1003C00051011092500108959B01AC016091A90761
:1003D0007091AA0788279927ECE0660F771F881F7E
:1003E000991FEA95D1F70E94411EDA01C9010197D0
:1003F00008958091C1088F3F19F42FEF30E00EC0AF
:10040000282F3327F901EC53F74F80818093C108DF
:100410008F3F11F48093DE088FEF8083C901089528
:100420000E94B10108950F931F930FB7F89412B76C
:100430000E94870120913B0830913C0840913D0883
:1004400050913E0881FF0FC081B792B7280F311D30
:10045000411D511D2F5F3F4F4F4F5F4F290F311DE2
:10046000411D511D04C0210F311D411D511D802F03
:1004700099278FBFCA01B9011F910F9108950E945A
:1004800013020895282F9FB7F894E82FFF27EC5305
:10049000F74F80818F3F81F4E091DE08E21771F41D
:1004A0000BC02093C10804C0FF27EC53F74F2083F3
:1004B0002093DE0820E007C025E005C08091C10838
:1004C0008F3F91F7EECF892F99278FBF822F9927E2
:1004D000089581E00E94420280E090E0089588E063
:1004E0000E9442029927089589E00E9442029927BA
:1004F00008958AE00E944202992708958FE00E94A1
:1005000042029927089580E10E94420299270895A6
:100510008FB7F8949927609336018FBF8DE00E94C2
:100520004202089581E10E9442029927089583E1E1
:100530000E94420299270895EF92FF920F931F9312
:10054000E0914C01E1FF2BC0209144013091450125
:100550004091460150914701E0904801F0904901D7
:1005600000914A0110914B01621B730B840B950B98
:100570006E157F058007910790F0E0FF04C0ED7FC6
:10058000E0934C010CC02E0D3F1D401F511F2093C6
:10059000440130934501409346015093470186E161
:1005A0000E9442021F910F91FF90EF900895DF92F9
:1005B000EF92FF920F931F938FB7F894E82EFF24CA
:1005C000DE2C01B712B70E948701011711F081FFDD
:1005D00002C0EFBE6AC0809142088823E1F10E9408
:1005E0001302E090B007F090B1070091B2071091AC
:1005F000B30720917708309178084091790850919D
:100600007A086E197F09800B910B621773078407B4
:10061000950720F01092420871E01EC02E0D3F1D7C
:10062000401F511F80913B0890913C08A0913D08CC
:10063000B0913E08281B390B4A0B5B0B273E310556
:100640004105510540F4822F223010F070E005C0C2
:1006500070E082E002C070E086EE682F615000B664
:1006600001FCFDCF82B7681709F46F5F20913B084A
:1006700030913C0840913D0850913E08DA01C90193
:100680000196A11DB11D860F911DA11DB11D8217DF
:100690009307A407B50710F4622F609561BFDFBE12
:1006A000772319F085E10E9442021F910F91FF907C
:1006B000EF90DF9008950F932093A7083093A80838
:1006C0004093A9085093AA0800934D01AFB7F8943E
:1006D000BB27E1E0E09342086093B0077093B10755
:1006E0008093B2079093B3072093770830937808EC
:1006F0004093790850937A08AFBF0E94D7020F91B8
:1007000008958FB7F89499272BB331E023272BBB9B
:100710008FBF08950E9481030895FF920F931F9346
:10072000CF93DF93EC01CB01233931F468A5772710
:1007300067FD70950E948901FFB6F8948091A50726
:10074000882359F5E0911805FF27EE0FFF1FE854A5
:10075000F84F008111818091B4079927FC01EE0FB9
:10076000FF1FE854F84FD183C08301966CE070E01E
:100770000E942E1E8093B40720915F02281719F45F
:1007800081E08093A50780916502882349F40E9447
:10079000790281E08093650203C00E948A038E0182
:1007A0008F2D99278FBFC801DF91CF911F910F9196
:1007B000FF9008950E9481030895E82F8FB7F89461
:1007C000282F332790E0FF27E357F84F80818617C3
:1007D00009F491E02FBF892F99270895682F81E0B0
:1007E0000E94DD039927089560E080E00E94DD0308
:1007F00099270895882311F06E9A08956E980895A8
:100800001F9380913A01882309F044C010910A0196
:100810001F3F09F03FC00E94F4038823D9F181E013
:1008200080934F01809140018823B9F110924F01CC
:1008300085E090E040C0923041F5C09A80910B0174
:1008400090E08F3F09F491E09923D1F48F3F19F4A0
:100850002FEF30E00DC0282F3327F901EF51F74F6C
:10086000808180930B018F3F11F480930C011083E2
:100870002093D00781E080933B010E94970205C03E
:1008800010930D0110923B0111C080913B01882310
:1008900069F00FC081E090E00EC080910D01909151
:1008A0003B01882341F2923021F0EFCF80E00E949B
:1008B000FA0380E090E01F9108951F93CF93DF9398
:1008C0009FB7F894C92FDD271C2F90910A01981724
:1008D00021F0CFBF81E090E035C08FEF80930A0117
:1008E00030913A013323C9F40E949A010E94000416
:1008F000CFBF10C020930A0181E090E002C0880FB2
:10090000991F4A95E2F78095382330933A010E9467
:1009100092021FBF80E090E015C080E065E0E32F09
:10092000FF270E940E1E292F492F5527CF01042E85
:1009300002C0959587950A94E2F780FDDBCF822F60
:100940008F5FEFCFDF91CF911F91089583E00E94D9
:100950005D04992708950E94A60480E090E0089520
:1009600084E00E945D04992708951F93182F81E069
:100970000E94FA031FB9779BFECF8FB199271F9171
:1009800008950E94B50499270895882311F06F9A5D
:1009900008956F9808958F929F92AF92BF92CF92D1
:1009A000DF92EF92FF920F931F93CF93DF938FB756
:1009B000F8949927C0909407D090950780905C0197
:1009C00090905D01C0916002D09161022091400839
:1009D000309141081AE0A12EB12CAC0EBD1E2A1593
:1009E0003B0508F459018FBF7401EC0EFD1E860112
:1009F0000C0F1D1F14C0C114D10419F0F80180811F
:100A000001C080E00E94B5048114910411F0F70147
:100A1000808321960894E11CF11C0F5F1F4FC501D4
:100A20000197C817D90738F381E00E94C5049FB722
:100A3000F894C114D10431F0CC0EDD1EF601808192
:100A40008FB901C01FB8D0936102C0936002892F93
:100A500099278FBF80E090E0DF91CF911F910F9198
:100A6000FF90EF90DF90CF90BF90AF909F908F90CE
:100A700008952FB7F89433275093410840934008C6
:100A8000909395078093940770935D0160935C0148
:100A900010926102109260022FBF452B29F08FB196
:100AA0000E94CB049927089582E10E94420280E0CF
:100AB00090E00895552780E090E00E94390599273D
:100AC0000895EF92FF920F931F93CF93DF937C01D2
:100AD000062F8FB7F894C82FDD270E94F4038823D0
:100AE00021F0CFBF80E090E012C0CFBF8FE790E051
:100AF0009093A4078093A3078FE70E94C104182F47
:100B0000402FB7018FE30E945A05812F9927DF916B
:100B1000CF911F910F91FF90EF900895C09861E0E1
:100B200080914101909142010E9461050895462FF4
:100B3000BC018FE30E945A0599270895282F9FB77B
:100B4000F894662349F0E82FFF27E357F84F808198
:100B5000882311F021E006C0E22FFF27E357F84F6A
:100B6000608320E0892F99278FBF822F99270895CE
:100B7000682F80E00E949E059927089580E00E94DA
:100B8000FA03BA9ABB98B99A6C9A80E00E94C5049D
:100B9000709A6B986A98689881E00E94FA030895A9
:100BA0000F931F93CF93DF93182F8FB7F894C82F0D
:100BB000DD270C2F81E00E94B805882321F0CFBFEC
:100BC00085E090E020C080910D018823A1F4809100
:100BD0003B01823081F409C082E080933B01109296
:100BE0000D010E94BE05B89AC09810930A0180E0DA
:100BF0000FBF992708C080913B01882369F30E94A9
:100C00009A0181E0F5CFDF91CF911F910F91089567
:100C10000F931F93182F0FB7F89481E00E94B80527
:100C2000882371F510930A0180910D018823A9F59D
:100C300080913B01823089F50E94920238C00E9467
:100C4000BE0580913B01882341F481E080933B0104
:100C50001092D0070E9497022AC08091E1088F3F2E
:100C600031F5E0910C01EE2311F11CC010920B0143
:100C700004C0FF27EF51F74F108210920C0117C0EC
:100C800081E090E002C0880F991F1A95E2F7209149
:100C90003A01282B20933A010AC080913B01882316
:100CA000E1F6CDCF80910B018F3F19F7DFCF802F79
:100CB00099278FBF80E090E01F910F91089582E007
:100CC00090E0909367028093660281E080935C02DB
:100CD00020E030E080910A01843011F421E030E01E
:100CE000232B29F484E00E94D005882319F40E9464
:100CF0008E05089584E00E94080608951F93CF93FF
:100D0000DF938FB7F894C82FDD271C2F80916602E0
:100D100090916702892B21F40E94B004CFBF1DC0BF
:100D200010925C028091E008882311F0B79904C00A
:100D30000E9908C0882319F081508093E0080E9422
:100D40005F060AC081E090E090936702809366029C
:100D50001092E0080E94B0041FBFDF91CF911F9155
:100D6000089580E880935E0110925C021092A107C2
:100D70001092B7071092E00808951F93CF93DF9366
:100D8000182F8FB7F894C82FDD270E94F40388230B
:100D900021F0CFBF80E090E005C0CFBF812F0E943F
:100DA000C1049927DF91CF911F91089583E00E949C
:100DB000BD069927089589E00E94BD0699270895E8
:100DC00088E00E94BD06992708950E94B106C09A46
:100DD000C0980E94E0060E94E006C09A0E94B004FB
:100DE0000E947E060895FC0115A640E050E060E0F8
:100DF00070E88E960E949E0108951F93182F81E03F
:100E000090E090933D0180933C01109240010E943C
:100E10000004612F8091190590911A050E948802A3
:100E20001F9108952F923F924F925F926F927F92FF
:100E30008F929F92AF92BF92CF92DF92EF92FF92EA
:100E40000F931F93CF93DF93CDB7DEB728970FB6DD
:100E5000F894DEBF0FBECDBF20900C0530900D057D
:100E600040900E0550900F056624772488249EE458
:100E7000A92E83E8B82ECC24DD24EE24FF2400E044
:100E800010E0222D332D442D552D662D772D882DE4
:100E900090E00E94861C29833A834B835C836D8398
:100EA0007E838F839887822E932EA42EB52E2401C5
:100EB000350100E20E94841DA22EB32EC42ED52E31
:100EC000D301C201B695A795979587958A0D9B1D6D
:100ED000AC1DBD1DB7FF04C0BF770196A11DB11D9C
:100EE00080930C0590930D05A0930E05B0930F050C
:100EF00028960FB6F894DEBF0FBECDBFDF91CF911D
:100F00001F910F91FF90EF90DF90CF90BF90AF9027
:100F10009F908F907F906F905F904F903F902F9019
:100F200008950E94120708958FB7F89460915D02AA
:100F300070915E022CB53DB506B602FE04C06F5F2F
:100F40007F4F2CB53DB599278FBF88279927CB01B7
:100F50007727662744275527622B732B842B952BE5
:100F60000895EF92FF920F931F930E9494077B01C5
:100F70008C01209112053091130540911405509178
:100F800015058091AC089091AD08A091AE08B09184
:100F9000AF08820F931FA41FB51FE216F3060407C4
:100FA000150730F082179307A407B50758F005C05E
:100FB00082179307A407B507E0F5E816F9060A07B4
:100FC0001B07B8F59C01AD012E193F09400B510BD1
:100FD000213060E8360760E0460760E0560768F1B8
:100FE00080E090E8A0E0B0E0E80EF91E0A1F1B1FA9
:100FF000E0921205F0921305009314051093150565
:1010000080E090E8AFEFBFEFE80EF91E0A1F1B1F4C
:1010100020503048404050402093AC083093AD08F9
:101020004093AE085093AF0820E030E840E050E035
:1010300014C020E030E040E050E08093120590932F
:101040001305A0931405B09315051092AC081092E7
:10105000AD081092AE081092AF08A901B7012CB5E7
:101060003DB5C9018E199F0903968417950720F095
:10107000B9016D5F7F4F02C0640F751F6115710567
:1010800011F461E070E0615070407BBD6ABD80E1A9
:1010900086BF87B7806187BF1F910F91FF90EF9048
:1010A00008950E9494070895CF92DF92EF92FF92E5
:1010B0000F931F936B017C010E9451080FB7F894A6
:1010C0001127609312057093130580931405909374
:1010D0001505C092AC08D092AD08E092AE08F0922F
:1010E000AF080E94B1070FBF1F910F91FF90EF90C3
:1010F000DF90CF9008950E94540808950F931F9396
:101100000FB7F89411270E94910766E470E00E94DF
:101110001A1E0B969093970780939607AA27BB27D2
:10112000BC01CD010E947B080FBF1F910F91089554
:101130001F93CF93DF938FB7F894C82FDD271C2F11
:1011400080913C0190913D010897A1F40E94DB063B
:101150000E94AB04C09A81E090E090933D0180939F
:101160003C0163E08091190590911A050E94880264
:10117000CFBF2DC0C09880919107882311F085E0E2
:1011800001C084E00E94BD0683FD09C080E00E948A
:10119000BD0683FF04C085E090E020E003C083E04B
:1011A00090E021E090933D0180933C01C09A1FBFE5
:1011B000222339F01092A2070E94AB040E947E08FD
:1011C00006C060E471E080E090E00E947B08DF915F
:1011D000CF911F9108950F931F93CF93DF938B01AE
:1011E0008091A3079091A40786FF16C18F7B8F3350
:1011F00009F056C1C0914101D091420158815093EC
:10120000520180916602909167028330910509F442
:101210003FC08430910509F483C0029709F0F6C0FD
:1012200083E090E0909367028093660240915E01B4
:10123000852F99270196242F3327281739072CF15A
:10124000B79906C00E9904C0451B415040935E01FA
:10125000609152016A32C8F4662389F09E012F5FC3
:101260003F4F683010F067E006C084E090E0909354
:10127000670280936602C9010E94970511C110920E
:101280005C02C09A0E94B004BEC00E94E50608C17C
:1012900084E090E09093670280936602809111054C
:1012A0008823C1F180911B058823A1F5898185FFE1
:1012B00031C08F814E812FB7F89433276091C208D7
:1012C0007091C3082FBF9927982F88275527842B03
:1012D000952B8617970759F08F812E819927982F84
:1012E00088273327822B932B8F5F9F4F99F4898117
:1012F0008770813079F4C09AC0988AE00E94BD0658
:10130000C09AC098609152016750CE0108960E9421
:101310006105C6C0609152016750CE010896ACCFFE
:10132000C09A8091E008882311F40E94B004809153
:10133000B707882339F1809152018B3048F1E09151
:10134000A107FF27EE0FFF1FEE0FFF1FEE51F74F14
:10135000408151816281738180914101909142016C
:101360000E94B1018091A1079927019668E070E081
:101370000E942E1E8093A1078091B7078150809311
:10138000B70706C080914101909142010E94F30687
:1013900080915201FE01E80FF11D808187FF33C06B
:1013A000012B89F189818770E0914101F09142011F
:1013B000823019F5A0911905B0911A05109719F10D
:1013C00080913C0190913D010797E9F4ED019B81EB
:1013D00083819817C1F487B78F7E87BF908181E0A2
:1013E0008CA7E90FF11D8291319688A780818F77B4
:1013F00089A780E00E94FD0606C0813021F484E1C7
:101400000E9442024DC00E947E064AC010925C02B9
:10141000C09A0E94B00444C08E3309F041C0C09A03
:1014200080913C0190913D010897A1F4C0980E94E1
:10143000DB06C09A0E94AB0481E090E090933D01EE
:1014400080933C0163E08091190590911A050E94F8
:10145000880226C080919107882349F484E090E0B7
:1014600090933D0180933C010E94980819C00E940E
:10147000AB0483E090E090933D0180933C010E9497
:10148000910766E371E00E941A1E0B969093170570
:1014900080931605AA27BB27BC01CD010E947B08BB
:1014A000DF91CF911F910F910895FF920F931F939A
:1014B000CF93DF93F82E8B018FB7F894C82FDD27D9
:1014C0000E94F403882321F0CFBF80E090E00CC09D
:1014D000CFBF8F2D0E94C104812F99270E94C10484
:1014E000802F0E94C1049927DF91CF911F910F9106
:1014F000FF900895EF92FF921F93CF93DF93E090B8
:101500001905F0901A05F70182A59927182F88234D
:1015100009F41FE1C0988091B608811749F0612F46
:1015200077276F717070606E706885E10E94550A50
:101530001093B608F70110818FB7F894C82FDD27F4
:101540000E94F403882311F0CFBF12C0CFBF8EE3F7
:1015500090E09093A4078093A3078EE30E94C104B8
:101560001150412F552760E070E0C7010E943905F6
:10157000DF91CF911F91FF90EF900895BC018DE115
:101580000E94550A992708958FB7F894992760917A
:10159000AB088FBF85E0689FB0011124625D7E4F6C
:1015A000706488E10E94550A08951F931FB7F8944C
:1015B00080916402882319F460E070E009C060E063
:1015C0008091B408882309F461E081E068277727D7
:1015D00080911105882319F480E090E00AC090E022
:1015E00080911B05882309F491E081E09827892FD9
:1015F0009927762F6627770F770F770FA4E0880F4C
:10160000991FAA95E1F7826E9262682B792B81E18E
:101610000E94550A812F99278FBF1F910895CF925D
:10162000DF92EF92FF920F931F93CF93DF938C0182
:10163000F62E6A01E22E8FB7F894C82FDD270E949C
:10164000F403882321F0CFBF80E090E01EC0CFBF1D
:101650000F0D111D802F80680E94C104F82E169571
:101660000795802F807C0E94C1040E2D0AC0EE2DAC
:10167000FF27E01BF109EC0DFD1D80810E94C104D4
:1016800001500023A1F78F2D9927DF91CF911F9152
:101690000F91FF90EF90DF90CF900895EF92FF921F
:1016A0000F931F93CF93DF93CDB7DEB724970FB679
:1016B000F894DEBF0FBECDBF0FB7F894112760912D
:1016C000990770919A077E010894E11CF11CC701EB
:1016D0000E94BC016091C2087091C308CE010396BC
:1016E0000E94BC010FBF24E0A70160E088E691E002
:1016F0000E940F0B24960FB6F894DEBF0FBECDBF2D
:10170000DF91CF911F910F91FF90EF90089582E0AC
:101710000E949001089597B79F7D97BF90E296BF72
:10172000882319F08EB5806402C08EB58F7B8EBD84
:1017300087B7806287BF80E090E0089580E00E94D4
:101740008B0B9927089581E00E948B0B99270895B0
:101750001F9383E00E94D0059927182F882319F042
:1017600083E00E940806812F99271F9108951F93F7
:101770001FB7F89480911C05882339F40E94420217
:10178000882319F481E080931C05812F99278FBF4E
:101790001F9108950F931F93CF93DF93182FEA01A2
:1017A000022FCA0105960E9489011B870987809133
:1017B000250190912601892B19F085E090E038C031
:1017C0002FB7F894332785E08093280110922901E0
:1017D000D0932401C093230182E090E090932601EE
:1017E0008093250110922B0110922A01045F00932F
:1017F00027012FBF9FB7F8948091AD07882311F080
:1018000020E006C081E08093AD071092AE0721E092
:10181000892F99278FBF222329F00E94B70B80E0E0
:1018200090E006C0109226011092250181E090E020
:10183000DF91CF911F910F9108950E94CA0B9927B4
:101840000895FF920F931F93CF93DF938B01F42E94
:10185000EB012596BC01CE010E94890184E68E83AE
:1018600080915A0190915B01892B19F085E090E0FD
:1018700028C010935B0100935A01FC8280910901FA
:10188000882319F480E090E01CC08E81F801658106
:101890007727762F662729813327622B732B1092A7
:1018A00009012F2DA8010E941D0C982F882339F0C3
:1018B00081E08093090110925B0110925A01892FF7
:1018C0009927DF91CF911F910F91FF9008959FB7B6
:1018D000F8948091B0088A3011F020E006C020E032
:1018E0008091B507843009F421E0892F99278FBFB3
:1018F000222349F082E00E9442028FB7F894992790
:101900001092200106C08FB7F894992721E0209308
:1019100020018FBF08952FB7F89433278CB95E9AB2
:101920002FBF0895FC016115710519F481E090E065
:1019300008958091020990910309892B19F085E09F
:1019400090E008957093B3086093B208F093030990
:10195000E0930209109254011092530181E08093A8
:1019600010055E9A569A808121E030E03093540150
:10197000209353010E948B0C80E090E008958091A9
:1019800031018E7F809331018EE780937E0861E084
:1019900070E08EE798E00E94920C99270895EAEB98
:1019A000F0E06927660FF11DE60FF11DC895982F2D
:1019B000802D3196C89590250895982F80912C01FF
:1019C000882381F5992371F531E030932C018091C2
:1019D000020180932D0120912101822F817080933B
:1019E0006302809107019091080190932F018093E9
:1019F0002E01809122018093300132273170267EA2
:101A0000E32FFF27EE0FFF1FED5FFE4F80819181D7
:101A10009093080180930701232B2093210185E0F7
:101A20000E94420208950F931F93082F162F809152
:101A3000B507813079F0813038F0823009F43EC04A
:101A4000833009F002C14DC0002309F424C10E9473
:101A5000D30111C1002309F01EC180915001909162
:101A600051010E94CF0C909351018093500182E06C
:101A70008093B50710937F08143409F0E6C0FDC0C9
:101A8000869504C08091210186958695817009F024
:101A9000DCC080912101992311F0846001C0826033
:101AA0008093210180912101877E886080932101AC
:101AB000109222018FEF80930201EDC0002309F004
:101AC000C4C06093A00780915001909151010E9481
:101AD000CF0C909351018093500183E08093B50720
:101AE000DAC080917B088F3F09F4AFC0002309F46E
:101AF00047C0823008F4A9C0E0915501EE2309F4F3
:101B0000C3C04E2F4150E42FFF27EB5AFE4F828176
:101B10009927382F2227442311F4E2E002C0E42F52
:101B2000E150FF27EB5AFE4F82819927282B392B52
:101B300080915001909151012817390709F085C013
:101B400080E00E94DD0C3091A0078091B9082091BF
:101B5000BA08982F9F5F963008F090E0921709F42A
:101B600074C0E82FFF27E754F74F32838F5F8093CD
:101B7000B908863010F01092B9080E94B70B65C002
:101B8000823008F44EC0E0915601FF27EB5AFE4F19
:101B90008281482F5527342F20912101822F86954D
:101BA00086958695837099278130910519F0029763
:101BB000F9F40EC0277E206120932101442311F403
:101BC00085E001C080E0809322013093020110C0C3
:101BD00080912201843360F4E0910701F0910801C3
:101BE000E80FF11D4083809122018F5F80932201D5
:101BF00080915601E82FFF27EB5AFE4F62818F5FDD
:101C000080935601833010F010925601772780910F
:101C10005001909151010E94CF0C909351018093FB
:101C2000500180915501E82FFF27EB5AFE4F128398
:101C30008F5F80935501833010F010925501809191
:101C40007B088F5F80937B0826C00E94D301809120
:101C500031018D7F8093310181E00E94DD0C809104
:101C60002001882331F084E08093B5070E94670C3F
:101C700012C0002381F081E031CF80912101982FA3
:101C8000917080FDFDCEFECE809159019927382FAD
:101C9000222742E044CF1F910F9108951F920F9287
:101CA0000FB60F9211242F933F934F935F936F932F
:101CB0007F938F939F93AF93BF93EF93FF935F9B1C
:101CC0003DC06CB1E0918C08F0918D083097F9F02F
:101CD0008091A7079091A807E80FF91F60830196EC
:101CE0009093A8078093A7072091D1073091D2073E
:101CF0008217930718F110928D0810928C0880912A
:101D00005F018330D9F0579810925F0117C06E378A
:101D100019F460E081E010C0809131016D3721F449
:101D20008260809331010AC081FF05C08D7F80935E
:101D3000310180E2682780E00E94130DFF91EF914E
:101D4000BF91AF919F918F917F916F915F914F91D3
:101D50003F912F910F900FBE0F901F901895982FC5
:101D60008D57823068F48091310181608093310118
:101D700080E28927809393078DE780937E0802C0D5
:101D800090937E0861E070E08EE798E00E94920CEC
:101D90009927089578941F920F920FB60F921124ED
:101DA000FF920F931F932F933F934F935F936F93E4
:101DB0007F938F939F93AF93BF93CF93DF93EF93D3
:101DC000FF9320915301309154018091B20890917A
:101DD000B3082817390780F4E0910209F09103094C
:101DE000E20FF31F80812F5F3F4F30935401209308
:101DF00053010E948B0CCFC010920309109202096C
:101E00001092100556988091310180FF0EC08E7F90
:101E1000809331018091930780937E0861E070E0A8
:101E20008EE798E00E94920CB6C08091B008843092
:101E300009F493C0853040F4823021F18330B8F545
:101E4000813009F0A3C00DC0863009F494C08630FB
:101E500008F48AC0873009F495C0883009F096C02C
:101E600098C08091B8080E94AF0E082F83E080933D
:101E7000B0086091B80880919B0790919C070E94E0
:101E8000CF0C10C08091A6070E94AF0E082F83E0F0
:101E90008093B0086091A60780919B0790919C0762
:101EA0000E94CF0C90939C0780939B076DC0FFB658
:101EB000F894E091B108FF27EE0FFF1FE455F84FAB
:101EC00080810E94AF0E082F1091B108C12FDD272D
:101ED000FE01EE0FFF1FE455F84F608180919B07D4
:101EE00090919C070E94CF0C90939C0780939B0736
:101EF00020919F072F5F20939F07113039F5809124
:101F00002801E0912301F0912401E80FF11DE08107
:101F10008F5F8093280190912701981730F482E019
:101F20008093AD0740E050E002C04E2F5527DE0100
:101F3000AA0FBB1FFD01E555F84F8081823031F0BB
:101F40002F3F21F0A455B84F4C9303C084E08093F9
:101F5000B0088F2D99278FBF17C080919B070E94D3
:101F6000AF0E082F85E00BC080919C070E94AF0E3A
:101F7000082F86E004C00E94BF0C082F87E08093E2
:101F8000B00802C088E003C0002329F089E08093F4
:101F9000B0080E94B70BFF91EF91DF91CF91BF91F5
:101FA000AF919F918F917F916F915F914F913F91F1
:101FB0002F911F910F91FF900F900FBE0F901F90C8
:101FC00018951F920F920FB60F9211248F93809144
:101FD0009B0087FF02C080919C008F910F900FBEE5
:101FE0000F901F90189578941F920F920FB60F9232
:101FF00011240F900FBE0F901F90189578941F9288
:102000000F920FB60F9211240F900FBE0F901F90DA
:10201000189578941F920F920FB60F9211240F907B
:102020000FBE0F901F90189578941F920F920FB6C5
:102030000F9211240F900FBE0F901F901895789457
:102040001F920F920FB60F9211248F939F9380913E
:102050008800909189009F918F910F900FBE0F90F3
:102060001F90189578941F920F920FB60F9211241B
:102070002F933F938F939F932FB7F894332780919B
:1020800060019091610101969093610180936001DC
:102090002FBF9F918F913F912F910F900FBE0F9067
:1020A0001F9018951F920F920FB60F9211242F9325
:1020B0003F934F935F936F937F938F939F93AF93D0
:1020C000BF93EF93FF9383B783BF00B600FCFDCFB0
:1020D00081B799270196AA27BB2720913B08309109
:1020E0003C0840913D0850913E08280F391F4A1F77
:1020F0005B1F20933B0830933C0840933D0850936E
:102100003E0878940E94D702FF91EF91BF91AF9162
:102110009F918F917F916F915F914F913F912F91FF
:102120000F900FBE0F901F90189578941F920F92EA
:102130000FB60F9211241F932F933F934F935F93EA
:102140006F937F938F939F93AF93BF93EF93FF937F
:1021500087B78F7E87BF78941FB7F8948091AC08BB
:102160009091AD08A091AE08B091AF080097A1057D
:10217000B10509F04CC080913C0190913D01853042
:10218000910551F18630910530F48330910549F085
:10219000049759F518C087309105E1F0089729F5A3
:1021A00012C0869B0DC084E090E090933D01809327
:1021B0003C0167E070E080E090E00E947B0815C081
:1021C0000E947E0812C00E94A80B882371F40E940E
:1021D00098080BC080E007C00E94DB060E94A30B9A
:1021E0000E94AB0487E00E94FD0680913701909128
:1021F0003801019771F482E090E090933801809368
:102200003701DE98DE9A80E00E94080602C00E9434
:10221000B107812F99278FBFFF91EF91BF91AF91A8
:102220009F918F917F916F915F914F913F912F91EE
:102230001F910F900FBE0F901F90189578941F92CA
:102240000F920FB60F9211240F900FBE0F901F9098
:10225000189578941F920F920FB60F9211240F9039
:102260000FBE0F901F90189578941F920F920FB683
:102270000F9211244F925F926F927F928F929F9252
:10228000AF92BF92CF92DF92EF92FF920F931F9384
:102290002F933F934F935F936F937F938F939F936E
:1022A000AF93BF93CF93DF93EF93FF93CCB5DDB59F
:1022B00080E286BF0E945108AB01BC018E0122273B
:1022C0003327DB01CA01A070B07080179107A20705
:1022D000B30798F4612C712C9FEF892E9FEF992EF4
:1022E000640E751E861E971E80E090E0AFEFBFEF74
:1022F000682279228A229B220AC0612C712C8FEFDE
:10230000882E8FEF982E6422752286229722602ACB
:10231000712A822A932A8FB7F894482E80913C0123
:1023200090913D018530910521F0069709F0A1C0FB
:1023300083C086E090E090933D0180933C0111E0E2
:10234000512E5092B6070E949E0BB401A3018091BA
:10235000190590911A050E941002E0911905F0915B
:102360001A0585A5882309F44AC080813C968550CA
:10237000E80FF11DB4EFAB2EBFEFBB2EAE0EBF1EAC
:10238000D5018C913B9701914191C08055276627DB
:102390007727762F652F542F44279927AA27BB2705
:1023A000B82FAA2799278827112722273327980192
:1023B00011270027802B912BA22BB32BDD24EE2499
:1023C000FF248C299D29AE29BF29482B592B6A2B24
:1023D0007B2B4619570968097909C5010E949E019E
:1023E000C098E0911905F0911A0560816550772732
:1023F00024E0A50180E090E00E940F0BC09AE091DC
:102400001905F0911A05818185FF02C050924001A3
:102410000E94AB0487B78F7E87BFE0911905F091CA
:102420001A0581818770813029F4B401A301CF019D
:102430000E941002849962C01092B6070E94A30BFA
:10244000E0911905F0911A05818185FF0DC087E0A3
:1024500090E090933D0180933C0160E071E080E06A
:1024600090E00E947B0803C080E00E94FD06849BF0
:1024700045C080913E01882321F511E01093B607F5
:102480000E949E0B8091B707883098F4E091A107D5
:10249000E80FFF27E770F070EE0FFF1FEE0FFF1F32
:1024A000EE51F74F60827182828293828F5F8093B8
:1024B000B70710933E01D0937D08C0937C088499A0
:1024C0001DC01092B6070E94A30B10923E0180918E
:1024D0007C0890917D08C81BD90B2A9778F48091CD
:1024E000B707882319F081508093B70780911905A9
:1024F00090911A05009711F00E94F3064FBEFF91CC
:10250000EF91DF91CF91BF91AF919F918F917F918B
:102510006F915F914F913F912F911F910F91FF907C
:10252000EF90DF90CF90BF90AF909F908F907F9073
:102530006F905F904F900F900FBE0F901F90189567
:1025400078941F920F920FB60F9211242F933F93FE
:102550008F939F932FB7F894332780915D029091CA
:102560005E02019690935E0280935D022FBF9F9161
:102570008F913F912F910F900FBE0F901F90189544
:102580001F920F920FB60F9211240F900FBE0F9053
:102590001F9018951F920F920FB60F9211240F9053
:1025A0000FBE0F901F9018951F920F920FB60F92AB
:1025B00011240F900FBE0F901F9018951F920F922D
:1025C0000FB60F9211240F900FBE0F901F90189509
:1025D0001F920F920FB60F9211240F900FBE0F9003
:1025E0001F9018951F920F920FB60F9211240F9003
:1025F0000FBE0F901F9018951F920F920FB60F925B
:1026000011242F933F934F935F936F937F938F93F7
:102610009F93AF93BF93EF93FF9380916602909146
:102620006702019719F40E945F0605C08091E008D7
:102630008F5F8093E008FF91EF91BF91AF919F91E1
:102640008F917F916F915F914F913F912F910F905B
:102650000FBE0F901F9018951F920F920FB60F92FA
:1026600011240F900FBE0F901F9018951F920F927C
:102670000FB60F9211242F933F934F935F936F9355
:102680007F938F939F93AF93BF93EF93FF932FB15C
:10269000E0915C01F0915D01309739F0809160022A
:1026A00090916102E80FF91F208380916002909160
:1026B00061020196909361028093600280E00E9423
:1026C000C50440914008509141088091600290916A
:1026D00061028417950718F40E94CB041CC0609116
:1026E0005C0170915D018091940790919507109223
:1026F0005D0110925C011092950710929407109260
:1027000041081092400810926102109260022FB1AD
:1027100020E00E94EB08FF91EF91BF91AF919F9154
:102720008F917F916F915F914F913F912F910F907A
:102730000FBE0F901F901895809134018C3118F0C6
:102740004CE150E002C0482F55278CE1E4EEF4E064
:1027500011928A95E9F7909134018091320120E03D
:1027600030E0A4EEB4E00FC0E82FFF27EE59FE4F93
:10277000E081992329F08F5F8A3F09F480E091502E
:10278000ED932F5F3F4F2417350771F79093340176
:10279000809332014CE168ED74E08FEF9FEF0E946F
:1027A000210C882311F00E946F020895882379F488
:1027B000442359F480913401882319F00E949C131A
:1027C000089581E08093350108950E946F02089575
:1027D000EF92FF920F931F93CF93DF93182F7B01FC
:1027E000042FE82FFF27EE0FFF1FE65AFE4F11823E
:1027F000108210920901A0915A01B0915B011097CB
:1028000021F08091B70880FF08C081E08093090122
:1028100017C087E00E94420213C0FD013596248153
:102820003327ED016D817727762F662781819927E0
:10283000682B792BAD0186810E941D0C882349F7F6
:10284000402FB701812F0E94D613DF91CF911F91A6
:102850000F91FF90EF900895BF92CF92DF92EF9289
:10286000FF920F931F93CF93DF93E82FFF27E7315A
:10287000F10508F058C6EA5BFF4FEE0FFF1F059009
:10288000F491E02D09948091B708882309F0E5C1FF
:102890004AC68FB7F89410921C052091B00840E00A
:1028A000283009F441E030E0293009F431E04423D4
:1028B00011F4332351F01092B008E091B108FF27D2
:1028C000EE0FFF1FE555F84F108299278FBF442365
:1028D00011F4332329F18091A6078F5F8093A60717
:1028E0008091B8088334A1F49FB7F8942091BA0876
:1028F0008091B908821741F0822F8F5F8093BA08C8
:10290000863010F01092BA08892F99278FBF0CC01B
:10291000EE24442311F4F1E0EF2EE1E0FE2E06C098
:10292000222311F010E053C0EE24FF248FB7F89457
:102930009927209120018FBF222341F08FB7F8946F
:1029400099272AE02093B0088FBF2DC08FB7F89445
:1029500099271091AB070091AD078FBF0E94C3016B
:102960008823F1F41123E1F41FB7F89482E08093F7
:10297000AB070E94C301882311F080E006C0E091FC
:10298000BA08FF27E754F74F82818093AC07812F65
:1029900099278FBF83E48093B8081092B1080BC0C9
:1029A0000150023010F010E007C085E48093B808B1
:1029B00081E08093B10811E0FF2049F08FB7F894CF
:1029C0009927E09229018FBF84E00E944202809102
:1029D000B0088A3019F40E94670CA5C5112309F4C8
:1029E000A2C52FB7F894332710929C0710929B072B
:1029F00010929F0781E08093B0082FBF0E94BF0C08
:102A0000882309F490C58FB7F894992729E020937B
:102A1000B0088FBF0E94B70B86C556985798109282
:102A20005F0110921005539A549A579A809135017C
:102A3000882309F05FC081E191E0909307098093BA
:102A400006098FB7F894992721E0209335018FBFAD
:102A5000EEE8F8E088E692E081939193C49628E04E
:102A6000E63AF207C9F71092AF07109218051092D4
:102A7000DD0881E080933F08E8EBF7E08DE195E029
:102A800081939193C49637E0E03DF307C9F7109224
:102A90005F021092B4071092650281E08093A5074F
:102AA00061E00E949E058823D9F48FB7F894282FFF
:102AB00033278091370190913801892B11F02FBF76
:102AC00017C081E090E090933801809337012FBFC9
:102AD000DD9A64E170E080E090E00E94540808C054
:102AE00082E00E94EE03882319F481E00E94EE0345
:102AF0000E94690210923F0816C583E00E944202BC
:102B000012C5539854988FB7F894992710923501AD
:102B100009C510922601109225018FB7F8949927C4
:102B2000109129018FBF80912A01811113E0C0917A
:102B30002301D091240180912B01882309F0F3C453
:102B400080910901882361F480915A0190915B0181
:102B50008C179D0729F4412FBE0180E00E94E813E5
:102B6000112309F004C13FB7F8942091AF07E22F79
:102B7000FF27EE0FFF1FE257F74F80819181C817A3
:102B8000D90771F4822F8F5F8093AF078C3010F0DC
:102B90001092AF0780913F08882311F010923F08F0
:102BA000832F99278FBFE5C08FB7F894992720917D
:102BB0002D01C0912E01D0912F01F09063028FBFA3
:102BC000222399F5EFB6F8948091A507882331F573
:102BD0008091B407E82FFF27EE0FFF1FE854F84F4E
:102BE00000811181D183C0838F5F8093B4078C30C3
:102BF00010F01092B4079091B40780915F0298177B
:102C000019F481E08093A50780916502882349F437
:102C10000E94790281E08093650203C00E948A03CA
:102C20008E018E2D99278FBFE8018FB7F894EF2D75
:102C3000FF27EE0FFF1FED5FFE4FD183C083209172
:102C40002101FF2011F02B7F01C02D7F2093210156
:102C500010922C0199278FBF66C441E0F42E00E04A
:102C600010E0CAE5D1E09091B7088F2D892369F073
:102C700068817981198218828F2D8095982390938D
:102C8000B70843E0802F0E94D6130F5F1F4F229694
:102C90000830110509F447C4FF0CE5CF8091090104
:102CA000E82FFF27EE0FFF1FE65AFE4F608171816C
:102CB00041E00E94E81337C44CE168ED74E08FEF07
:102CC0009FEF0E94210C882309F42DC40E946F02FB
:102CD0002AC48FB7F894282F3327422F90911805D4
:102CE0008091AF07981739F480913F08882319F431
:102CF0001092DD0852C04FBFE091AF07FF27EE0FE3
:102D0000FF1FE257F74F0190F081E02DE08043EF85
:102D1000E40EFF24E092A608B3840781C680618593
:102D200080857727762F66279927682B792BCF0107
:102D300007960E948901E091AF07FF27EE0FFF1F62
:102D4000E257F74F408151811127102F0027DD24D2
:102D50000C291D292E2DB8018B2D0E94CA0B88230A
:102D600031F48FB7F89499272BB332E0D9C30E947E
:102D7000DA030E947402D7C38FB7F894282F332741
:102D8000422F9091B40780915F02981741F480918F
:102D9000A507882321F4109265022FBFC4C34FBF3B
:102DA000E0915F02FF27EE0FFF1FE854F84FC0814C
:102DB000D181D88060E070E0CE0106960E94BC010F
:102DC0008FB7F89499276091990770919A078FBFF0
:102DD000CE0104960E94BC018FB7F89499276091A8
:102DE0000E0170910F018FBFCE0108960E94BC01A9
:102DF00061E082E00E949E05882309F0FBC080917B
:102E000043018F5F8093430181508B838FE38A87D7
:102E10008FB7F894E82EFF2482E00E94EE03882307
:102E200021F4EFBE0E94870BE5C084E00E94B5014B
:102E3000D093DC08C093DB08EFBEFE01D1928F0176
:102E40006981772760727070CF010E94BC01F80120
:102E5000618189817727762F662799278164986811
:102E6000682B792BC8010E94BC011CA618A619A6C4
:102E70001DA640E050E060E070E8CE018E960E9412
:102E80009E0161E06093B5084091DB085091DC0839
:102E90008FB7F894282F332780913C0190913D0102
:102EA0008830910511F0019711F02FBF34C382E0F3
:102EB00090E090933D0180933C0160939107509383
:102EC0001A05409319051092A2072FBF0E94A80B64
:102ED000882309F020C30E947A0A1DC30FB7F89413
:102EE00011270E94A30B61E0E62EF12CF0923D0128
:102EF000E0923C0110923E01109240011092B608FF
:102F00000FBF0FB7F89411270E94B106F092670225
:102F1000E092660210925C0289B78F7B89BF80E4E1
:102F200088BF8AB780628ABF8AB78F7E8ABF89B717
:102F3000806489BF0FBF8FB7F894C82FDD278091B9
:102F4000370190913801049711F40E94D606CFBF43
:102F50000FB7F8941127C09A80E00E945D040FBF5C
:102F600082E00E94B5011092A507DDC280E00E94B8
:102F7000B501D9C28FB7F8949927F09036018FBF69
:102F800083E00E94EE03882351F10FB7F8941127D4
:102F900010923D0110923C0187B78F7E87BF87B7A3
:102FA0008F7D87BF0E94A604C09A0FBF0FB7F89409
:102FB000112710926702109266020E94B106C09A11
:102FC00089B78F7B89BF0FBF1092380110923701EC
:102FD000DE98DD98DE9A8CE00E94420203C082E017
:102FE0000E94B501C091DB08D091DC080E94870BDC
:102FF000FF2019F00E94DA0320C03FB7F894209117
:103000005F02E22FFF27EE0FFF1FE854F84F808189
:103010009181C817D90771F4822F8F5F80935F0267
:103020008C3010F010925F028091A507882311F078
:103030001092A507832F99278FBF0E94790273C230
:103040008FB7F894282F3327122F8091620288239C
:1030500009F0A3CE81E080936202809137019091C4
:103060003801049721F481E00E94080602C00E9402
:103070007E021FBF58C28FB7F89499271092620240
:1030800051C28FB7F894282F3327809139018823B4
:1030900009F083CE2FBF80B3992746E09695879598
:1030A0004A95E1F7182F117090914E018091980781
:1030B0008917D1F01917C1F484E090E0909338019A
:1030C000809337018FB7F894992721E02093390135
:1030D0008FBF80E090E00E94BE0A0E944E0BC09A13
:1030E000C0988BE00E944202109398070E948302CE
:1030F0001AC28FB7F894992720910A018FBF223006
:1031000009F45EC0233030F4222359F0213009F055
:103110000AC241C0233009F46DC0243009F003C253
:1031200096C0C0988FB7F894C82FDD2780913701DB
:1031300090913801029769F583E090E0909338010F
:103140008093370188E190E00E94BE0A81E080937D
:103150004E011092390180B3992736E096958795F4
:103160003A95E1F781709070809398070E948302EE
:1031700081E00E94BD066FE772E08CE10E94550A73
:103180000E94C40A0E94D50A66E57AE287E10E949D
:10319000550ACFBFC8C1C09886E00E94BD060E94F4
:1031A000C40A0E94D50A0E944E0BC09AC0980E9481
:1031B000D606C09A81E00E945D040E947E02B3C1DF
:1031C000C0988FB7F894C82FDD270E94F403882396
:1031D00011F0CFBF0AC0CFBF83E50E94C10480E0D9
:1031E0000E94C10480E00E94C104C09A82E00E9453
:1031F0005D0499C18FB7F894992720913C018FBF46
:10320000243039F0283041F02230F1F40E947A0A5B
:103210008AC10E94980887C1C0980E94DB06C09AA4
:103220000E94AB042FB7F894332781E090E090938D
:103230003D0180933C012FBF63E08091190590917F
:103240001A050E9488026FC10E94AB046CC10E94E3
:103250008E0569C10FB7F89411274091400850912D
:10326000410860915C0170915D018091940790919B
:10327000950710925D0110925C01109295071092D3
:103280009407109241081092400810926102109227
:10329000600220E00E94EB080FBF45C12FB7F894F1
:1032A00033278091D00780930D0182E080933B010A
:1032B0002FBF80910D01882309F035C1B89AC098BD
:1032C0000E94920230C1A0914101B09142011C9133
:1032D000FD01E10FF11D8081881F8827881FED0106
:1032E0008BA780818F7789A73197808188A7E0910C
:1032F0004101F09142018FB7F8949927209164021F
:103300008FBF2223F9F0878146812FB7F8943327A6
:103310006091C2087091C3082FBF9927982F882702
:103320005527842B952B8617970761F08781268177
:103330009927982F88273327822B932B8F5F9F4FB6
:1033400009F074C01D3008F471C0C0914101D091E2
:1033500042018A858F3309F065C0898528859927C0
:10336000582F44273327422B532B6B818FEF8093A9
:10337000DF088FB7F894782F20E030E0E0E8F8E03D
:10338000808191818417950729F48281861731F114
:103390002093DF082F5F3F4F33962430310581F7AC
:1033A0007FBF9091DF083FB7F8949F3F21F0809155
:1033B0003F018917A9F420913F01822F9927FC0131
:1033C000EE0FFF1FE80FF91FE058F74F51834083BE
:1033D00062832F5F237020933F010EC07FBF22C006
:1033E000892F9927FC01EE0FFF1FE80FF91FE05806
:1033F000F74F518340836283832F99278FBF8BA51B
:10340000882381F0A12FAD50FE013C962FB7F89490
:1034100033272FBF2B8533274A2FBF01CE010E94B0
:103420008D03EC01D0934201C09341018FB7F89412
:10343000992710925C028FBF0E947E0674C0809113
:103440004D01882319F52091A7083091A8084091D3
:10345000A9085091AA08EFB7F894FF276091B00728
:103460007091B1078091B2079091B307E09077080F
:10347000F09078080091790810917A086E0D7F1D00
:10348000801F911FEFBF00E00E945B030E943F027C
:1034900039C00E943F026B017C018FB7F8949927D5
:1034A000109242088FBF80914C0181FF3CC08091F7
:1034B000440190914501A0914601B0914701A701B7
:1034C0009601281B390B4A0B5B0BDA01C9012091CD
:1034D00048013091490140914A0150914B01281B0C
:1034E000390B4A0B5B0B2F3F8FEF38078FEF4807E5
:1034F0008FE75807C1F012161306140615062CF0B4
:10350000C701B6010E949C020EC001E0C701B601CE
:103510000E945B0308C08FB7F89499272BB334E05F
:1035200023272BBB98CBDF91CF911F910F91FF9059
:10353000EF90DF90CF90BF9008950E94F9018F3FE8
:1035400019F480E090E008950E942C1481E090E04E
:103550000895CFEFD0E1DEBFCDBFFFB6F89447E1CD
:1035600050E06FEF70E084EC98E00E94071E8FEF50
:103570008093C1088093DE0881E08EBD88E080BF23
:1035800083E083BF8CB59DB54AE72CB53DB52817C0
:10359000390708F44150442311F0C901F6CF92B71E
:1035A00082B78917E9F32CB53DB592B782B7891771
:1035B000E9F38CB59DB5821B930B409615E096956B
:1035C00087951A95E1F79093AA078093A90713BEF0
:1035D00083B78EBD8EB580BF12BE1DBC1CBC8FEFE5
:1035E00086BF86B780937C0080B7992787709070DC
:1035F000892BD1F7D29AD19AD09ADA9AD99AD89AB5
:1036000015BA8FEF84BBD498DC981DBC1CBC87B75F
:10361000846087BF8EB5887F84608EBD10928900DC
:103620001092880080917D00846080937D0080915D
:103630008A00887F826080938A0080E285BF0E9432
:103640009D1A8823E1F7E0E8F8E08FEF9FEF918380
:1036500080831282339628E0EC38F207C1F70E948B
:10366000120780934301809100019091010101961E
:10367000AA27BB2780930C0590930D05A0930E05F8
:10368000B0930F0580B7886080BF8BE083BF86EE64
:1036900081BF87B7826087BF0E94D70283E498E02A
:1036A00090934201809341018E98B89A8C988FEF45
:1036B0008093E10810928D0710928E0710928F0769
:1036C00010929007B89AD69AD59A8FB7F8949927FE
:1036D00020910E0130910F018FBF3093C3082093CA
:1036E000C20880911001992790939A0780939907B7
:1036F0008FE1809392078AE18093AB0881E0809309
:1037000064021092B4088093110510921B0512E018
:1037100006E060E071EE80E090E00E94E40189B98B
:10372000292F3327209390001BB9009395001AB8D6
:10373000809399002093980010939B0000939D0024
:1037400010929A0084E490E090939E0780939D07E6
:103750001092AB071092AD071092B00810929F071D
:103760001092B8081092A60710929C0710929B071F
:1037700010921C051092B1080E94D3011092BA0851
:103780001092B9080E949D1A8823E1F78F2D99277E
:103790008FBF78940E9469028FB7F894082F112781
:1037A00049C087B7992783709070892B19F4E5E099
:1037B000F0E013C080B7992787709070892BD1F7FC
:1037C00081B792B7891B8C3030F082B7853F18F4EF
:1037D000E3E0F0E002C0E2E0F0E087B7887BC1F40C
:1037E00080917D008B7FA1F46E9912C08AB1909177
:1037F0009A00892B807C61F48091740082FD08C05E
:10380000379B03C081E090E005C085E090E002C0F6
:1038100080E090E025B78E1708F4E82FFF27E654E4
:10382000FD4FC895E02D237E2062E22BE5BF789402
:103830008895F8940E94F9018F3F09F4B2CF0FBF29
:103840000E942C14A9CF1F93182F8091350181302D
:1038500049F4809134018C3828F082E0809335015E
:103860000E949C138FB7F894282F3327909134012E
:103870009A3FA8F480913301E82FFF27EE59FE4FBD
:1038800010838F5F809333018A3F11F410923301CC
:103890009F5F909334012FBF80E090E003C02FBF63
:1038A0008FEF9FEF1F9108958FB7F894282F33273C
:1038B00080913501823021F42FBF80E090E008959F
:1038C00090E080913401882309F491E0992321F05C
:1038D0002FBF81E090E0089582E0809335012FBFF3
:1038E0000E949C1380E090E008951F920F920FB603
:1038F0000F9211248F9383B783BF00B600FCFDCFD6
:103900008F910F900FBE0F901F901895ACE2B0E012
:10391000ECE8FCE10C94821E222E332E442E552E10
:10392000662E772E882E992EFE013196A8E01192F0
:10393000AA95E9F729823A824B825C826D827E8267
:103940008F829886FE013996B8E01192BA95E9F710
:10395000A986BA86CB86DC86ED86FE860F87188B15
:1039600089819A81AB81BC8189A79AA7ABA7BCA7A3
:103970007C018D018FEF9FEFA0E0B0E0E822F922FB
:103980000A231B2389A59AA5ABA5BCA51D01442428
:10399000552489859A85AB85BC858DA39EA3AFA34D
:1039A000B8A75C016D018FEF9FEFA0E0B0E0A82207
:1039B000B922CA22DB228DA19EA1AFA1B8A53D01EB
:1039C00088249924C801B701A60195010E94631EAD
:1039D00069A37AA38BA39CA3C801B701A401930197
:1039E0000E94631E7B018C01C201B101A6019501F9
:1039F0000E94631E5B016C01C201B101A40193012D
:103A00000E94631E3B014C01EA0CFB1C0C1D1D1D9A
:103A100089A19AA1ABA1BCA19D01442755272E0DD8
:103A20003F1D401F511F2A153B054C055D0540F405
:103A300080E090E0A1E0B0E0680E791E8A1E9B1E37
:103A4000CA01AA27BB27860D971DA81DB91D8D8FFA
:103A50009E8FAF8FB8A3A9013327222789A19AA1EE
:103A6000ABA1BCA1A070B070280F391F4A1F5B1F0B
:103A7000298F3A8F4B8F5C8FA98CBA8CCB8CDC8CC6
:103A8000ED8CFE8C0F8D18A1FE01719698E01192BD
:103A90009A95E9F7ED8AFE8A0F8B188F2D813E816A
:103AA0004F8158856DA17EA18FA198A50E94631EAC
:103AB0003B014C012D853E854F85588969A57AA526
:103AC0008BA59CA50E94631E2D893E894F89588D28
:103AD000260F371F481F591F260D371D481D591D1A
:103AE0002D8B3E8B4F8B588F6D887E888F88988C5E
:103AF0002A2D3B2D4C2D5D2D662D772D882D992D52
:103B0000E2E1AC960C949E1EA0E1B0E0EAE8FDE193
:103B10000C94821E222E332E442E552E662E772E86
:103B2000882E992E002309F466C088E0FE013196A4
:103B300011928A95E9F729833A834B835C836D83DD
:103B40007E838F829887E0E2E01B1E16CCF52D81E4
:103B50003E814F815885602F772767FD7095DA0188
:103B6000C901062E04C0B695A795979587950A9426
:103B7000D2F78D879E87AF87B88B04C0220F331F83
:103B8000441F551FEA95D2F789819A81AB81BC8188
:103B900004C0B695A795979587956A95D2F7282B77
:103BA000392B4A2B5B2B29873A874B875C872984E3
:103BB0003A844B845C846D847E848F8498881BC097
:103BC0001D861E861F86188A2E2F332727FD3095C7
:103BD000309521953F4F8D819E81AF81B88504C07E
:103BE000B695A795979587952A95D2F789879A874D
:103BF000AB87BC87DCCF222D332D442D552D662D70
:103C0000772D882D992DE2E160960C949E1EDC01A3
:103C100001C06D9341505040E0F70895991B79E041
:103C200004C0991F961708F0961B881F7A95C9F74C
:103C300080950895AA1BBB1B51E107C0AA1FBB1F9B
:103C4000A617B70710F0A61BB70B881F991F5A9528
:103C5000A9F780959095BC01CD01089597FB092E99
:103C600007260AD077FD04D0E5DF06D000201AF43D
:103C7000709561957F4F0895F6F7909581959F4FC8
:103C80000895A1E21A2EAA1BBB1BFD010DC0AA1F9D
:103C9000BB1FEE1FFF1FA217B307E407F50720F0B5
:103CA000A21BB30BE40BF50B661F771F881F991F30
:103CB0001A9469F760957095809590959B01AC0179
:103CC000BD01CF010895629FD001739FF001829FD3
:103CD000E00DF11D649FE00DF11D929FF00D839F9B
:103CE000F00D749FF00D659FF00D9927729FB00D38
:103CF000E11DF91F639FB00DE11DF91FBD01CF014B
:103D0000112408952F923F924F925F926F927F926B
:103D10008F929F92AF92BF92CF92DF92EF92FF92DB
:103D20000F931F93CF93DF93CDB7DEB7CA1BDB0B87
:103D30000FB6F894DEBF0FBECDBF09942A8839882C
:103D400048885F846E847D848C849B84AA84B98433
:103D5000C884DF80EE80FD800C811B81AA81B9813F
:103D6000CE0FD11D0FB6F894DEBF0FBECDBFED0153
:043D70000895FFCFE4
:103D74000300FFD3070708D30701FFFFFFFF03007A
:103D8400220000000200000000231C0000000000CC
:00000001FF
