S01B00006275696C642F7A69676265785F492F6D61696E2E73726563C5
S11300000C946F010C9481170C948B170C94B317F8
S11300100C94BD170C94C7170C94D1170C94DB17D0
S11300200C940B180C948E010C948E010C94F51501
S11300300C9456150C94DF150C9461170C9413153D
S11300400C9404270C9415180C94DB120C948E0158
S11300500C9457130C9492260C948E010C948E01DC
S11300600C94EA150C94E0140C94BF140C94CA1468
S11300700C94D5140C94F3140C94C4190C948E01A0
S11300800C946E140C948E010C948E01011FC51FE8
S1130090C81FCA1FD21FF71FF31E3A204820FA1E9A
S11300A07620822085208920D820F220F820312152
S11300B0E22106221B2230235A23A823AB23AE239A
S11300C07926BB234D24292568259D25AF25BD25EB
S11300D01B261E26262649260000211042206330B6
S11300E08440A550C660E770088129914AA16BB18C
S11300F08CC1ADD1CEE1EFF1311210027332522234
S1130100B5529442F772D662399318837BB35AA3DB
S1130110BDD39CC3FFF3DEE3622443342004011403
S1130120E664C774A44485546AA54BB5288509952B
S1130130EEE5CFF5ACC58DD55336722611163006D3
S1130140D776F6669556B4465BB77AA7199738877B
S1130150DFF7FEE79DD7BCC7C448E5588668A77893
S11301604008611802282338CCC9EDD98EE9AFF9CB
S1130170488969990AA92BB9F55AD44AB77A966A73
S1130180711A500A333A122AFDDBDCCBBFFB9EEB1B
S1130190799B588B3BBB1AABA66C877CE44CC55C43
S11301A0222C033C600C411CAEED8FFDECCDCDDD6B
S11301B02AAD0BBD688D499D977EB66ED55EF44E13
S11301C0133E322E511E700E9FFFBEEFDDDFFCCFBB
S11301D01BBF3AAF599F788F8891A981CAB1EBA10F
S11301E00CD12DC14EF16FE18010A100C230E3208B
S11301F00450254046706760B9839893FBA3DAB333
S11302003DC31CD37FE35EF3B1029012F322D232DA
S11302103542145277625672EAB5CBA5A895898502
S11302206EF54FE52CD50DC5E234C324A01481042A
S11302306674476424540544DBA7FAB79987B897D2
S11302405FE77EF71DC73CD7D326F2369106B0167A
S113025057667676154634564CD96DC90EF92FE992
S1130260C899E9898AB9ABA94458654806782768CA
S1130270C018E1088238A3287DCB5CDB3FEB1EFB72
S1130280F98BD89BBBAB9ABB754A545A376A167A1A
S1130290F10AD01AB32A923A2EFD0FED6CDD4DCD42
S11302A0AABD8BADE89DC98D267C076C645C454C6A
S11302B0A23C832CE01CC10C1FEF3EFF5DCF7CDF12
S11302C09BAFBABFD98FF89F176E367E554E745EBA
S11302D0932EB23ED10EF01E00081C1814101124E7
S11302E01FBECFEFD0E1DEBFCDBF12E0A0E0B1E092
S11302F0EAE6FCE500E00BBF02C007900D92A639C8
S1130300B107D9F717E0A6E9B2E001C01D92AA3EF1
S1130310B107E1F70E9446270C94342E0C94000098
S11303208FB7F894992708958FBF0895882319F0FB
S1130330813021F402C0A9980895A9980895782FCE
S11303407F715527829586958695837099274817DE
S1130350590719F080E090E013C0862F8850863149
S113036018F081E090E00CC040E050E0262F3327E5
S1130370872F99272817390711F441E050E0CA0163
S11303809927089587B1089586B70895FC01CB0194
S11303906183272F332720830895FC01CB016083D9
S11303A0272F332721830895FC014383BB27A72FDD
S11303B0962F852F8283CB01AA27BB278183872F82
S11303C09927AA27BB278083CB01BA0108952FB7A9
S11303D0F894332780930C052FBF08952FB7F89412
S11303E03327EBE0F5E0E80FF11D10822FBF0895ED
S11303F080E00E94EE0108958E960E94D401089533
S11304008FB7F894282F332740E090918507809187
S11304108607981709F441E02FBF842F9927089580
S113042010920E0310920D031092DF0510924707ED
S113043010924C071092AC05109209031092080315
S113044008959B01AC016091D4057091D50588276E
S11304509927ECE0660F771F881F991FEA95D1F75B
S11304600E94BC2DDA01C9010197089580918D077E
S11304708F3F19F42FEF30E00EC0282F3327F901F6
S1130480EF56F84F808180938D078F3F11F480934E
S1130490BA078FEF8083C90108950E94FC01089573
S11304A0982F969596959695EBE3F3E0E90FF11D59
S11304B0877021E030E002C0220F331F8A95E2F7F3
S11304C08081822399270895282F9FB7F894E82FD5
S11304D0FF27EF56F84F80818F3F81F4E091BA07F0
S11304E0E21771F40BC020938D0704C0FF27EF5669
S11304F0F84F20832093BA0720E007C025E005C009
S113050080918D078F3F91F7EECF892F99278FBF69
S1130510822F9927089588E00E94640299270895FC
S11305208FE00E9464029927089580E10E9464028A
S1130530992708958FB7F89499276093AC028FBFD9
S11305408DE00E946402089581E10E94640299276B
S1130550089581E20E946402992708958BE10E9424
S113056064029927089587E10E94640299270895F7
S113057083E10E9464029927089588E10E9464023D
S1130580992708958FE10E9464029927089586E1CE
S11305900E9464029927089584E20E9464029927C4
S11305A00895DF92EF92FF920F931F93CF93DF93FF
S11305B0982F8FB7F894D82E8091C302833009F016
S11305C044C0E0908602E91609F03FC080913B03E5
S11305D0882309F048C03DC0EF2DE695E695E695E1
S11305E0FF274F2D5527E55CFC4F9A01277030708B
S11305F081E090E002C0880F991F2A95E2F7809568
S1130600208128232083C093C20211C02196C230C6
S1130610D10511F4C0E0D0E0FC2E8C2F0E945002D2
S11306208823D1F6C017D10789F74FEF50E04093E4
S1130630170581E08093C3020E94CC028E2D0E9494
S11306409601DFBE80E090E014C0DFBE81E090E060
S113065010C082E0809386021092C3028E2D0E9405
S113066096013798EECF8091C202082F1127E80136
S1130670CDCFDF91CF911F910F91FF90EF90DF903D
S113068008950F931F93CF93DF93182F8FB7F89488
S1130690282F3327022F8091C302882351F581E04C
S11306A08093C302109317052FBF8FB7F89499272F
S11306B0379A8FBF8FB7F894C82FDD279C2F80916E
S11306C086028230A1F48091C302813019F40E9421
S11306D0CC0209C0823059F48091170580938602B8
S11306E083E08093C302CFBF80E090E01FC09FBF30
S11306F0FBCF812F0E945002882319F085E090E0FF
S113070014C0E12FE695E695E695FF27E55CFC4FDE
S1130710177081E090E002C0880F991F1A95E2F7E4
S11307202081282B208380E090E00FBFDF91CF91C0
S11307301F910F910895882321F0813021F081E0E9
S113074005C080E001C081E00E944103992708951B
S1130750882321F470937D0260937C0280E00E94E0
S11307609B030895BF92CF92DF92EF92FF920F9373
S11307701F938091E906882311F0813011F408E079
S113078008C0882329F0813019F08FE100E002C00D
S113079000E081E0C82EDD24EC2CBFB6F894109163
S11307A0B707812F8E7F8093B7070E94C20140E074
S11307B06C2D0E949F018170880F10782FE1E22236
S11307C09E2D990F990F182B192B1093B707FF24FF
S11307D0E7B8083059F58091D4059091D50521E00A
S11307E08638920718F087E090E01FC0833C91059B
S11307F018F086E090E019C08136910518F085E084
S113080090E013C08033910518F084E090E00DC0AF
S11308108831910518F083E090E007C00C9718F038
S113082082E090E002C080E090E0082F0770187D1D
S1130830102B186D812F992786B98B2D99278FBF7F
S11308401F910F91FF90EF90DF90CF90BF9008958C
S113085091E0909343068093E9060E94B2030895C1
S1130860EF920F931F93AE2D99E0899FF00111240D
S1130870E153FD4F40835183628373830483158363
S113088026833783A17080858E7F8A2B8260808740
S11308900E94C7021F910F91EF9008950F931F9329
S11308A00FB7F89412B70E94C4012091E306309167
S11308B0E4064091E5065091E60681FF0FC081B73A
S11308C092B7280F311D411D511D2F5F3F4F4F4FD0
S11308D05F4F290F311D411D511D04C0210F311DD2
S11308E0411D511D802F99278FBFCA01B9011F9146
S11308F00F9108950E944E040895AF92BF92CF9233
S1130900DF92EF92FF920F931F93F82E5A016B011F
S11309100E947A04AB01BC01F1E0EF2E960185013F
S11309208F2D0E9430041F910F91FF90EF90DF9064
S1130930CF90BF90AF9008954BE050E060E070E03E
S113094084E00E947D0480E090E0089590E087FFB9
S113095002C0919A01C09198909A90989F5F9830A4
S113096011F0880FF4CF08958998919A909A819BF9
S113097003C081E090E00895909880E090E00895AD
S1130980AB01BC0185E00E947D0408958998919A89
S11309902FB7F894332789B78D7F89BF82E088BF4A
S11309A0EAE6F0E080818860808380818B7F8083A9
S11309B089B7826089BF2FBF089580E020E0909AB4
S11309C081998160273031F0880F90982F5F28300B
S11309D011F0F5CF9098899A9198909A9098899867
S11309E0919A99270895899A919A909A909808953E
S11309F01F93889A90988998919A89B78D7F89BF17
S1130A00899A919A909880E0909A90988F5F893013
S1130A10D9F7899A919A9098909A91989098909AE7
S1130A20919A90988091BE079091BF078F719070B2
S1130A309093BF078093BE070E94A6040E94B4044B
S1130A40882329F01092BC0281E090E042C080919A
S1130A50BE079091BF078630910539F18730910523
S1130A6030F48330910569F0059789F50AC0873021
S1130A70910581F04E9759F56BE070E080E090E0CD
S1130A8006C00E94C6046AEF70E080E090E00E9415
S1130A90C0041DC00E94DD04182F0E94DD040E94C2
S1130AA0F3041093BD020E94C202809118050E94B3
S1130AB0A6040E94B404882321F081E08093BE023E
S1130AC004C0809118058093BD020E94C20280E098
S1130AD090E01F9108951F93982F8FB7F894182FC3
S1130AE08091BF028330B1F580918502891791F519
S1130AF08091830290E08F3F09F491E09923D9F427
S1130B008F3F19F42FEF30E00EC0282F3327F9015F
S1130B10EB5EFC4F8081809383028F3F11F48093BE
S1130B2084028FEF80832093160581E08093BF02B7
S1130B300E94A9020BC082E0809385021092BF023A
S1130B4081E08093C00283E20E9464021FBF80E0C0
S1130B5090E003C01FBF81E090E01F91089581E001
S1130B600E946B059927089580E00E946B059927E0
S1130B700895982F8FB7F894282F3327422F809108
S1130B80BF02882399F441E04093BF029093160575
S1130B902FBF8091C002882321F482E20E94640264
S1130BA002C04093C10280E090E00895E92FFF273E
S1130BB0EB5EFC4F80818F3F89F4E0918402E9175A
S1130BC089F40CC09093830204C0FF27EB5EFC4FB2
S1130BD090839093840280E090E002C085E090E0EE
S1130BE04FBF0895809183028F3F79F7EBCF80E068
S1130BF00E94B90580E090E00895882321F4709361
S1130C007B0260937A0281E00E94B90508951F93E4
S1130C10CF93DF93162FEA01882331F40E94B405A1
S1130C20BE01812F0E94FD05DF91CF911F91089590
S1130C301F93CF93DF93162FEA01813031F40E9482
S1130C40AF05BE01812F0E94A803DF91CF911F91B0
S1130C5008952FB7F894332780939C00EBE9F0E0D4
S1130C608081806480832FBF0895AC018091C50288
S1130C709091C6028036910520F01092C60210921F
S1130C80C50230E01DC08091C7029091C802803631
S1130C90910520F01092C8021092C7028091C702F9
S1130CA09091C802DC01A25CBB4FFA01E30FF11D75
S1130CB020812C9301969093C8028093C7023F5FD2
S1130CC0361709F78091C402882361F481E0809388
S1130CD0C402E091C502F091C602E25CFB4F808140
S1130CE00E94290608959EE7909321039093380368
S1130CF022E030E03093230320932203992790933A
S1130D002503809324031092260360915F0781E2F8
S1130D1093E00E9435060895AF92BF92CF92DF927E
S1130D20EF92FF920F931F93F82E5A016B010E94CA
S1130D307A04AB01BC01EE24960185018F2D0E943B
S1130D4030041F910F91FF90EF90DF90CF90BF90F0
S1130D50AF900895AB01BC0182E00E948C06089517
S1130D6090914807980F909319039F3F11F41092A4
S1130D70190308951F931FB7F89480910A058823D7
S1130D8039F40E946402882319F481E080930A05EF
S1130D90812F99278FBF1F9108950F931F93CF938E
S1130DA0DF93182FEA01022FCA0105960E94C6019B
S1130DB01B87098780919B0290919C02892B19F0D3
S1130DC085E090E038C02FB7F894332785E080930E
S1130DD09E0210929F02D0939A02C093990282E0DD
S1130DE090E090939C0280939B021092A102109237
S1130DF0A002045F00939D022FBF9FB7F8948091D7
S1130E00D805882311F020E006C081E08093D8053E
S1130E101092D90521E0892F99278FBF222329F029
S1130E200E94BA0680E090E006C010929C021092E4
S1130E309B0281E090E0DF91CF911F910F91089583
S1130E40FF920F931F93CF93DF938B01F42EEB014B
S1130E502596BC01CE010E94C60184E68E83809152
S1130E60120390911303892B19F085E090E028C0B8
S1130E701093130300931203FC8280917102882360
S1130E8019F480E090E01CC08E81F8016581772719
S1130E90762F662729813327622B732B10927102D8
S1130EA02F2DA8010E94CD06982F882339F081E0C8
S1130EB0809371021092130310921203892F9927C1
S1130EC0DF91CF911F910F91FF900895282F9FB725
S1130ED0F894662349F0E82FFF27E55FFA4F8081F5
S1130EE0882311F021E006C0E22FFF27E55FFA4FC7
S1130EF0608320E0892F99278FBF822F9927089537
S1130F00682F80E00E94660799270895E82F8FB71D
S1130F10F894282F332790E0FF27E55FFA4F80816C
S1130F20861709F491E02FBF892F9927089560E06F
S1130F3080E00E94860799270895682F81E00E9427
S1130F40860799270895882311F06E9A08956E985C
S1130F500895882311F06F9A08956F98089580E09A
S1130F600E94A307BA9ABB98B99A6C9A80E00E942F
S1130F70A907709A6B986A98689881E00E94A30701
S1130F8008950F931F93CF93DF93182F8FB7F8947F
S1130F90C82FDD270C2F81E00E948007882321F0D1
S1130FA0CFBF85E090E020C0809176028823A1F431
S1130FB08091B102823081F409C082E08093B10251
S1130FC0109276020E94AF07B89AC09810937302E9
S1130FD080E00FBF992708C08091B102882369F38C
S1130FE00E94F80181E0F5CFDF91CF911F910F911D
S1130FF008950F931F93182F0FB7F89481E00E9460
S11310008007882371F510937302809176028823F8
S1131010A9F58091B102823089F50E94A40238C0FA
S11310200E94AF078091B102882341F481E080934C
S1131030B102109244060E94B8022AC08091C007EF
S11310408F3F31F5E0917502EE2311F11CC010922F
S1131050740204C0FF27E054F84F10821092750206
S113106017C081E090E002C0880F991F1A95E2F73B
S11310702091B002282B2093B0020AC08091B102C3
S11310808823E1F6CDCF809174028F3F19F7DFCF2B
S1131090802F99278FBF80E090E01F910F910895D2
S11310A01F9383E00E94C1079927182F882319F002
S11310B083E00E94F907812F99271F9108951F93B8
S11310C0182F81E00E94A3071FB9779BFECF8FB131
S11310D099271F9108950E945F0899270895FF9208
S11310E00F931F93CF93DF93F82E8B018FB7F89450
S11310F0C82FDD270E949707882321F0CFBF80E007
S113110090E00CC0CFBF8F2D0E946B08812F9927D0
S11311100E946B08802F0E946B089927DF91CF9162
S11311201F910F91FF900895BC018DE10E946F08FB
S1131130992708958F929F92AF92BF92CF92DF9298
S1131140EF92FF920F931F93CF93DF938FB7F8948F
S11311509927C0901205D0901305809017039090A2
S11311601803C0913C04D0913D042091E7063091CE
S1131170E8061AE0A12EB12CAC0EBD1E2A153B05C3
S113118008F459018FBF7401EC0EFD1E86010C0F8B
S11311901D1F14C0C114D10419F0F801808101C0CD
S11311A080E00E945F088114910411F0F7018083AC
S11311B021960894E11CF11C0F5F1F4FC501019794
S11311C0C817D90738F381E00E94A9079FB7F8949C
S11311D0C114D10431F0CC0EDD1EF60180818FB92B
S11311E001C01FB8D0933D04C0933C04892F9927B4
S11311F08FBF80E090E0DF91CF911F910F91FF901E
S1131200EF90DF90CF90BF90AF909F908F90089514
S11312102FB7F89433275093E8064093E70690934A
S113122013058093120570931803609317031092AB
S11312303D0410923C042FBF452B29F08FB10E942E
S11312409A089927089582E10E94640280E090E060
S11312500895552780E090E00E9408099927089591
S1131260462FBC018FE30E94290999270895EF9224
S1131270FF921F93CF93DF93E0900705F09008054A
S1131280F70182A59927182F882309F41FE1C09834
S113129080918207811749F0612F77276F717070F1
S11312A0606E706885E10E946F0810938207F701F1
S11312B010818FB7F894C82FDD270E9497078823E1
S11312C011F0CFBF12C0CFBF8EE390E09093D00552
S11312D08093CF058EE30E946B081150412F552750
S11312E060E070E0C7010E940809DF91CF911F916F
S11312F0FF90EF90089582E00E94EE010895FF921E
S11313000F931F93CF93DF93EA01F22E8B87CA01C9
S113131006960E94CD018FB7F894992760915D05D8
S113132070915E058FBFCE0104960E94CD018FB7E8
S1131330F894992760917702709178028FBFCE015B
S113134008960E94CD0161E082E00E94660788232E
S113135019F085E090E072C08091CE028F5F809397
S1131360CE0281508B838FE38A878FB7F894082F3E
S1131370112782E00E949D07882329F40FBF0E9451
S11313807B0981E05AC084E00E94E701D093B90749
S1131390C093B8070FBF8DE0F80EFE01F1928F01E4
S11313A06981772760727070CF010E94CD01F801C6
S11313B0618189817727762F6627992781649868C8
S11313C0682B792BC8010E94CD011CA618A619A66A
S11313D01DA640E050E060E070E8CE018E960E94C9
S11313E0D40161E0609381074091B8075091B90737
S11313F08FB7F894282F33278091B2029091B302CB
S11314008830910511F0019711F02FBF15C082E0CB
S113141090E09093B3028093B20260930F055093CF
S11314200805409307051092CE052FBF0E9450086F
S1131430882311F40E94370980E09927DF91CF9126
S11314401F910F91FF9008958FB7F89499272BB3AC
S113145034E023272BBB8FBF08958FB7F8949927C7
S11314602BB331E023272BBB8FBF08958FB7F8949C
S113147060913A0470913B042CB53DB506B602FE6A
S113148004C06F5F7F4F2CB53DB599278FBF882768
S11314909927CB017727662744275527622B732B7F
S11314A0842B952B0895EF92FF920F931F930E9424
S11314B0360A7B018C012091E7043091E8044091C5
S11314C0E9045091EA048091780790917907A091FA
S11314D07A07B0917B07820F931FA41FB51FE216F2
S11314E0F3060407150730F082179307A407B5071E
S11314F058F005C082179307A407B507E0F5E8166E
S1131500F9060A071B07B8F59C01AD012E193F091E
S1131510400B510B213060E8360760E0460760E07D
S1131520560768F180E090E8A0E0B0E0E80EF91E0C
S11315300A1F1B1FE092E704F092E8040093E904F9
S11315401093EA0480E090E8AFEFBFEFE80EF91ED5
S11315500A1F1B1F205030484040504020937807FA
S11315603093790740937A0750937B0720E030E863
S113157040E050E014C020E030E040E050E08093D0
S1131580E7049093E804A093E904B093EA0410926A
S113159078071092790710927A0710927B07A901B5
S11315A0B7012CB53DB5C9018E199F09039684175F
S11315B0950720F0B9016D5F7F4F02C0640F751F5E
S11315C06115710511F461E070E0615070407BBDFC
S11315D06ABD80E186BF87B7806187BF1F910F9185
S11315E0FF90EF9008950E94360A0895CF92DF92FB
S11315F0EF92FF920F931F936B017C010E94F30AF9
S11316000FB7F89411276093E7047093E80480936C
S1131610E9049093EA04C0927807D0927907E092A3
S11316207A07F0927B070E94530A0FBF1F910F9114
S1131630FF90EF90DF90CF9008950E94F60A0895EE
S1131640DF92EF92FF920F931F938FB7F894E82ED7
S1131650FF24DE2C01B712B70E94C401011711F058
S113166081FF02C0EFBE6AC08091F2068823E1F1D7
S11316700E944E04E090DA05F090DB050091DC0551
S11316801091DD0520912707309128074091290703
S113169050912A076E197F09800B910B621773070B
S11316A08407950720F01092F20671E01EC02E0DFB
S11316B03F1D401F511F8091E3069091E406A091C5
S11316C0E506B091E606281B390B4A0B5B0B273E57
S11316D031054105510540F4822F223010F070E0AD
S11316E005C070E082E002C070E086EE682F6150B1
S11316F000B601FCFDCF82B7681709F46F5F209133
S1131700E3063091E4064091E5065091E606DA01DD
S1131710C9010196A11DB11D860F911DA11DB11D09
S113172082179307A407B50710F4622F609561BF71
S1131730DFBE772319F085E10E9464021F910F91A7
S1131740FF90EF90DF9008950F9320935B07309301
S11317505C0740935D0750935E0700930503AFB7A2
S1131760F894BB27E1E0E093F2066093DA05709306
S1131770DB058093DC059093DD05209327073093E8
S113178028074093290750932A07AFBF0E94200BD4
S11317900F9108951F938091B002882309F044C0EB
S11317A0109173021F3F09F03FC00E9497078823DE
S11317B0D9F181E0809307038091CB028823B9F1AA
S11317C01092070385E090E040C0923041F5C09A42
S11317D08091740290E08F3F09F491E09923D1F451
S11317E08F3F19F42FEF30E00DC0282F3327F90174
S11317F0E054F84F8081809374028F3F11F48093FA
S1131800750210832093440681E08093B1020E9404
S1131810B80205C0109376021092B10211C08091F3
S1131820B102882369F00FC081E090E00EC080917E
S113183076029091B102882341F2923021F0EFCFE9
S113184080E00E94A30780E090E01F9108951F9319
S1131850CF93DF939FB7F894C92FDD271C2F909166
S11318607302981721F0CFBF81E090E035C08FEF6D
S1131870809373023091B0023323C9F40E94F801BB
S11318800E94CA0BCFBF10C02093730281E090E086
S113189002C0880F991F4A95E2F780953823309348
S11318A0B0020E94A4021FBF80E090E015C080E057
S11318B065E0E32FFF270E94892D292F492F552703
S11318C0CF01042E02C0959587950A94E2F780FD16
S11318D0DBCF822F8F5FEFCFDF91CF911F910895E0
S11318E083E00E94270C992708950E94700C80E0E1
S11318F090E0089584E00E94270C99270895EF92C0
S1131900FF920F931F93CF93DF937C01062F8FB722
S1131910F894C82FDD270E949707882321F0CFBFB2
S113192080E090E012C0CFBF8FE790E09093D005A5
S11319308093CF058FE70E946B08182F402FB701C3
S11319408FE30E942909812F9927DF91CF911F915D
S11319500F91FF90EF900895C09861E08091CC02C0
S11319609091CD020E947F0C089582E090E09093C4
S1131970AA048093A90481E08093370420E030E036
S113198080917302843011F421E030E0232B29F498
S113199084E00E94C107882319F40E94AC0C0895C6
S11319A084E00E94F90708951F93CF93DF938FB7C4
S11319B0F894C82FDD271C2F8091A9049091AA04C4
S11319C0892B21F40E947A0CCFBF1DC010923704DA
S11319D08091BC07882311F0B79904C00E9908C000
S11319E0882319F081508093BC070E94B50C0AC06B
S11319F081E090E09093AA048093A9041092BC071C
S1131A000E947A0C1FBFDF91CF911F91089580E847
S1131A1080931C03109237041092CD051092410656
S1131A201092BC0708951F93CF93DF93182F8FB79D
S1131A30F894C82FDD270E949707882321F0CFBF91
S1131A4080E090E005C0CFBF812F0E946B089927EA
S1131A50DF91CF911F91089583E00E94130D992780
S1131A60089589E00E94130D9927089588E00E9443
S1131A70130D992708950E94070DC09AC0980E94DB
S1131A80360D0E94360DC09A0E947A0C0E94D40C26
S1131A900895FC0115A640E050E060E070E88E96E1
S1131AA00E94D40108951F93182F81E090E0909331
S1131AB0B3028093B2021092CB020E94CA0B612F30
S1131AC080910705909108050E949A021F9108953C
S1131AD02F923F924F925F926F927F928F929F923A
S1131AE0AF92BF92CF92DF92EF92FF920F931F9328
S1131AF0CF93DF93CDB7DEB728970FB6F894DEBF48
S1131B000FBECDBF2090E1043090E2044090E30486
S1131B105090E4046624772488247EE4A72E63E8A6
S1131B20B62ECC24DD24EE24FF2400E010E0222D88
S1131B30332D442D552D662D772D882D90E00E9450
S1131B40CC2829833A834B835C836D837E838F8384
S1131B509887822E932EA42EB52E2401350100E2FF
S1131B600E94CA29A22EB32EC42ED52ED301C2019F
S1131B70B695A795979587958A0D9B1DAC1DBD1DA0
S1131B80B7FF04C0BF770196A11DB11D8093E10486
S1131B909093E204A093E304B093E40428960FB670
S1131BA0F894DEBF0FBECDBFDF91CF911F910F918F
S1131BB0FF90EF90DF90CF90BF90AF909F908F9069
S1131BC07F906F905F904F903F902F9008950E9468
S1131BD0680D08950F931F930FB7F89411270E946F
S1131BE0E70D66E470E00E94952D0B969093150521
S1131BF080931405AA27BB27BC01CD010E941D0BAD
S1131C000FBF1F910F9108951F93CF93DF938FB749
S1131C10F894C82FDD271C2F8091B2029091B30253
S1131C200897A1F40E94310D0E94750CC09A81E0BE
S1131C3090E09093B3028093B20263E08091070531
S1131C40909108050E949A02CFBF2DC0C098809140
S1131C500F05882311F085E001C084E00E94130D74
S1131C6083FD09C080E00E94130D83FF04C085E05A
S1131C7090E020E003C083E090E021E09093B30281
S1131C808093B202C09A1FBF222339F01092CE056E
S1131C900E94750C0E94EA0D06C060E471E080E0C9
S1131CA090E00E941D0BDF91CF911F9108950F9337
S1131CB01F93CF93DF938B018091CF059091D00533
S1131CC086FF16C18F7B8F3309F056C1C091CC02B9
S1131CD0D091CD02588150930A038091A904909128
S1131CE0AA048330910509F43FC08430910509F4B6
S1131CF083C0029709F0F6C083E090E09093AA04B1
S1131D008093A90440911C03852F99270196242FC1
S1131D103327281739072CF1B79906C00E9904C048
S1131D20451B415040931C0360910A036A32C8F476
S1131D30662389F09E012F5F3F4F683010F067E003
S1131D4006C084E090E09093AA048093A904C9019A
S1131D500E94300911C110923704C09A0E947A0C73
S1131D60BEC00E943B0D08C184E090E09093AA0499
S1131D708093A9048091E6048823C1F18091090528
S1131D808823A1F5898185FF31C08F814E812FB7CA
S1131D90F894332760918F07709190072FBF99278C
S1131DA0982F88275527842B952B8617970759F04A
S1131DB08F812E819927982F88273327822B932B65
S1131DC08F5F9F4F99F489818770813079F4C09A2D
S1131DD0C0988AE00E94130DC09AC09860910A03CB
S1131DE06750CE0108960E947F0CC6C060910A031A
S1131DF06750CE010896ACCFC09A8091BC07882367
S1131E0011F40E947A0C80914106882339F1809163
S1131E100A038B3048F1E091CD05FF27EE0FFF1F39
S1131E20EE0FFF1FEF53F84F4081518162817381A0
S1131E308091CC029091CD020E94FC018091CD054D
S1131E409927019668E070E00E94A92D8093CD0542
S1131E508091410681508093410606C08091CC0256
S1131E609091CD020E94490D80910A03FE01E80F72
S1131E70F11D808187FF33C0012B89F1898187702F
S1131E80E091CC02F091CD02823019F5A0910705C2
S1131E90B0910805109719F18091B2029091B302A4
S1131EA00797E9F4ED019B8183819817C1F487B703
S1131EB08F7E87BF908181E08CA7E90FF11D82910D
S1131EC0319688A780818F7789A780E00E94530D7F
S1131ED006C0813021F484E10E9464024DC00E9456
S1131EE0D40C4AC010923704C09A0E947A0C44C0A1
S1131EF08E3309F041C0C09A8091B2029091B3022E
S1131F000897A1F4C0980E94310DC09A0E94750CE4
S1131F1081E090E09093B3028093B20263E08091F9
S1131F200705909108050E949A0226C080910F052A
S1131F30882349F484E090E09093B3028093B20242
S1131F400E94040E19C00E94750C83E090E09093E7
S1131F50B3028093B2020E94E70D66E371E00E942F
S1131F60952D0B969093EE048093ED04AA27BB273E
S1131F70BC01CD010E941D0BDF91CF911F910F91E8
S1131F8008958FB7F8949927609177078FBF85E0FC
S1131F90689FB0011124625D7E4F706488E10E94E5
S1131FA06F0808951F931FB7F8948091A80488239D
S1131FB019F460E070E009C060E080918007882334
S1131FC009F461E081E0682777278091E60488239B
S1131FD019F480E090E00AC090E08091090588231C
S1131FE009F491E081E09827892F9927762F6627B5
S1131FF0770F770F770F24E0880F991F2A95E1F761
S1132000826E9262682B792B81E10E946F08812F86
S113201099278FBF1F910895CF92DF92EF92FF927D
S11320200F931F93CF93DF938C01F62E6A01E22E58
S11320308FB7F894C82FDD270E949707882321F0D3
S1132040CFBF80E090E01EC0CFBF0F0D111D802FC9
S113205080680E946B08F82E16950795802F807C67
S11320600E946B080E2D0AC0EE2DFF27E01BF1091C
S1132070EC0DFD1D80810E946B0801500023A1F727
S11320808F2D9927DF91CF911F910F91FF90EF90A2
S1132090DF90CF900895EF92FF920F931F93CF9309
S11320A0DF93CDB7DEB724970FB6F894DEBF0FBE2B
S11320B0CDBF0FB7F894112760915D0570915E054F
S11320C07E010894E11CF11CC7010E94CD016091BE
S11320D08F0770919007CE0103960E94CD010FBF28
S11320E024E0A70160E088E691E00E940C102496A9
S11320F00FB6F894DEBF0FBECDBFDF91CF911F9115
S11321000F91FF90EF900895882391F465547640E1
S113211011F41092E107442349F48FB7F8949927F6
S11321202BB332E023272BBB8FBF08950E94240AD0
S113213008950F931F93CF93DF93182FEB01042F70
S1132140E82FFF27EE0FFF1FE65EFC4F118210827F
S113215010927202E0911A03F0911B03309721F060
S11321608091360480FF08C081E08093720215C01C
S11321708AE00E94640211C020812D5033276781B8
S11321807727762F662786819927682B792BAF01CD
S113219083850E947F09882359F7402FBE01812F30
S11321A00E948410DF91CF911F910F91089597B7EA
S11321B09F7D97BF90E296BF882319F08EB5806407
S11321C002C08EB58F7B8EBD87B7806287BF80E0EB
S11321D090E0089580E00E94D7109927089581E047
S11321E00E94D710992708959FB7F89480917C078F
S11321F08A3011F020E006C020E08091DF058430B1
S113220009F421E0892F99278FBF222349F082E026
S11322100E9464028FB7F89499271092960206C020
S11322208FB7F894992721E0209396028FBF0895E1
S11322302FB7F89433278CB95E9A2FBF0895FC0109
S11322406115710519F481E090E008958091E20729
S11322509091E307892B19F085E090E0089570933D
S11322607F0760937E07F093E307E093E207109201
S11322700C0310920B0381E08093E5045E9A569A56
S1132280808121E030E030930C0320930B030E9403
S1132290181180E090E008958091A7028E7F8093CA
S11322A0A7028EE780934B0761E070E08BE497E030
S11322B00E941F1199270895E8EDF0E06927660F41
S11322C0F11DE60FF11DC895982F802D3196C89504
S11322D090250895982F8091A202882381F599234F
S11322E071F531E03093A20280916A028093A302D7
S11322F020919702822F81708093A70480916F02AE
S1132300909170029093A5028093A4028091980208
S11323108093A60232273170267EE32FFF27EE0F2B
S1132320FF1FE559FD4F8081918190937002809346
S11323306F02232B2093970285E00E946402089584
S11323400F931F93082F162F8091DF05813079F0AA
S1132350813038F0823009F43EC0833009F002C184
S11323604DC0002309F424C10E94100211C10023AE
S113237009F01EC180910803909109030E945C1129
S1132380909309038093080382E08093DF05109300
S11323904C07143409F0E6C0FDC0869504C0809152
S11323A0970286958695817009F0DCC0809197022A
S11323B0992311F0846001C0826080939702809118
S11323C09702877E886080939702109298028FEF1D
S11323D080936A02EDC0002309F0C4C06093AC0589
S11323E080910803909109030E945C119093090362
S11323F08093080383E08093DF05DAC08091470768
S11324008F3F09F4AFC0002309F447C0823008F4B9
S1132410A9C0E0910D03EE2309F4C3C04E2F41502F
S1132420E42FFF27E35FFC4F82819927382F22276F
S1132430442311F4E2E002C0E42FE150FF27E35FFC
S1132440FC4F82819927282B392B80910803909186
S113245009032817390709F085C080E00E946A1132
S11324603091AC058091850720918607982F9F5F56
S1132470963008F090E0921709F474C0E82FFF2713
S1132480EB57F84F32838F5F80938507863010F0C7
S1132490109285070E94BA0665C0823008F44EC0C7
S11324A0E0910E03FF27E35FFC4F8281482F5527FD
S11324B0342F20919702822F869586958695837076
S11324C099278130910519F00297F9F40EC0277EFF
S11324D0206120939702442311F485E001C080E039
S11324E08093980230936A0210C0809198028433DA
S11324F060F4E0916F02F0917002E80FF11D4083E7
S1132500809198028F5F8093980280910E03E82F48
S1132510FF27E35FFC4F62818F5F80930E0383305C
S113252010F010920E03772780910803909109030D
S11325300E945C11909309038093080380910D031A
S1132540E82FFF27E35FFC4F12838F5F80930D0317
S1132550833010F010920D03809147078F5F8093B2
S1132560470726C00E9410028091A7028D7F8093A6
S1132570A70281E00E946A1180919602882331F0BB
S113258084E08093DF050E94F41012C0002381F0E0
S113259081E031CF80919702982F917080FDFDCE1C
S11325A0FECE809111039927382F222742E044CF91
S11325B01F910F9108951F920F920FB60F9211243D
S11325C02F933F934F935F936F937F938F939F9337
S11325D0AF93BF93EF93FF935F9B3DC06CB1E091CA
S11325E05907F0915A073097F9F08091D2059091EC
S11325F0D305E80FF91F608301969093D305809368
S1132600D2052091790630917A068217930718F142
S113261010925A071092590780911E038330D9F003
S1132620579810921E0317C06E3719F460E081E0CA
S113263010C08091A7026D3721F482608093A702B5
S11326400AC081FF05C08D7F8093A70280E26827BE
S113265080E00E94A011FF91EF91BF91AF919F91F3
S11326608F917F916F915F914F913F912F910F9037
S11326700FBE0F901F901895982F8D57823068F4D5
S11326808091A70281608093A70280E289278093CA
S113269011058DE780934B0702C090934B0761E0CF
S11326A070E08BE497E00E941F11992708957894B5
S11326B01F920F920FB60F921124FF920F931F9344
S11326C02F933F934F935F936F937F938F939F9336
S11326D0AF93BF93CF93DF93EF93FF9320910B03BB
S11326E030910C0380917E0790917F07281739075A
S11326F080F4E091E207F091E307E20FF31F808199
S11327002F5F3F4F30930C0320930B030E9418114B
S1132710CFC01092E3071092E2071092E504569896
S11327208091A70280FF0EC08E7F8093A7028091C4
S1132730110580934B0761E070E08BE497E00E9401
S11327401F11B6C080917C07843009F493C0853092
S113275040F4823021F18330B8F5813009F0A3C010
S11327600DC0863009F494C0863008F48AC08730DE
S113277009F495C0883009F096C098C08091840708
S11327800E943C13082F83E080937C0760918407A8
S113279080915F05909160050E945C1110C080914A
S11327A0D1050E943C13082F83E080937C0760913D
S11327B0D10580915F05909160050E945C11909312
S11327C0600580935F056DC0FFB6F894E0917D07C6
S11327D0FF27EE0FFF1FE952FA4F80810E943C133E
S11327E0082F10917D07C12FDD27FE01EE0FFF1F7B
S11327F0E952FA4F608180915F05909160050E94D3
S11328005C119093600580935F052091AB052F5F69
S11328102093AB05113039F580919E02E091990225
S1132820F0919A02E80FF11DE0818F5F80939E0280
S113283090919D02981730F482E08093D80540E08F
S113284050E002C04E2F5527DE01AA0FBB1FFD0129
S1132850EA52FA4F8081823031F02F3F21F0A952A1
S1132860BA4F4C9303C084E080937C078F2D992743
S11328708FBF17C080915F050E943C13082F85E02D
S11328800BC0809160050E943C13082F86E004C0B1
S11328900E944C11082F87E080937C0702C088E0D7
S11328A003C0002329F089E080937C070E94BA06C4
S11328B0FF91EF91DF91CF91BF91AF919F918F9154
S11328C07F916F915F914F913F912F911F910F9144
S11328D0FF900F900FBE0F901F90189578941F9241
S11328E00F920FB60F9211242F933F934F935F9340
S11328F06F937F938F939F93AF93BF93EF93FF93C4
S11329008091C5029091C60201969093C60280936D
S1132910C5028036910520F01092C6021092C502BD
S11329208091C7029091C8028036910520F01092E0
S1132930C8021092C702E091C502F091C6028091CC
S1132940C7029091C802E817F90731F0E25CFB4F27
S113295080810E94290602C01092C402FF91EF9167
S1132960BF91AF919F918F917F916F915F914F91A3
S11329703F912F910F900FBE0F901F901895789450
S11329801F920F920FB60F9211240F900FBE0F904B
S11329901F90189578941F920F920FB60F921124DE
S11329A00F900FBE0F901F90189578941F920F925E
S11329B00FB60F9211240F900FBE0F901F90189511
S11329C078941F920F920FB60F9211248F939F93B6
S11329D080918800909189009F918F910F900FBEF4
S11329E00F901F90189578941F920F920FB60F9224
S11329F011242F933F938F939F932FB7F8943327EA
S1132A008091390390913A03019690933A0380930D
S1132A1039032FBF9F918F913F912F910F900FBE3C
S1132A200F901F9018951F920F920FB60F921124BA
S1132A302F933F934F935F936F937F938F939F93C2
S1132A40AF93BF93EF93FF9383B783BF00B600FCAC
S1132A50FDCF81B799270196AA27BB272091E306CA
S1132A603091E4064091E5065091E606280F391F9F
S1132A704A1F5B1F2093E3063093E4064093E50668
S1132A805093E60678940E94200BFF91EF91BF913A
S1132A90AF919F918F917F916F915F914F913F91F2
S1132AA02F910F900FBE0F901F90189578941F923E
S1132AB00F920FB60F9211241F932F933F934F93AE
S1132AC05F936F937F938F939F93AF93BF93EF9392
S1132AD0FF9387B78F7E87BF78941FB7F894809150
S1132AE0780790917907A0917A07B0917B070097B6
S1132AF0A105B10509F04CC08091B2029091B302D6
S1132B008530910551F18630910530F4833091057B
S1132B1049F0049759F518C087309105E1F00897FA
S1132B2029F512C0869B0DC084E090E09093B30217
S1132B308093B20267E070E080E090E00E941D0B99
S1132B4015C00E94EA0D12C00E945008882371F437
S1132B500E94040E0BC080E007C00E94310D0E9449
S1132B60EF100E94750C87E00E94530D8091AD0216
S1132B709091AE02019771F482E090E09093AE02DE
S1132B808093AD02DE98DE9A80E00E94F90702C0CD
S1132B900E94530A812F99278FBFFF91EF91BF9114
S1132BA0AF919F918F917F916F915F914F913F91E1
S1132BB02F911F910F900FBE0F901F90189578942E
S1132BC01F920F920FB60F9211240F900FBE0F9009
S1132BD01F90189578941F920F920FB60F9211249C
S1132BE00F900FBE0F901F90189578941F920F921C
S1132BF00FB60F9211244F925F926F927F928F9231
S1132C009F92AF92BF92CF92DF92EF92FF920F9377
S1132C101F932F933F934F935F936F937F938F9360
S1132C209F93AF93BF93CF93DF93EF93FF93CCB571
S1132C30DDB580E286BF0E94F30AAB01BC018E01C0
S1132C4022273327DB01CA01A070B07080179107D7
S1132C50A207B30798F4612C712C9FEF892E9FEF84
S1132C60992E640E751E861E971E80E090E0AFEFCD
S1132C70BFEF682279228A229B220AC0612C712C20
S1132C808FEF882E8FEF982E64227522862297224A
S1132C90602A712A822A932A8FB7F894482E809149
S1132CA0B2029091B3028530910521F0069709F0A4
S1132CB0A1C083C086E090E09093B3028093B202F7
S1132CC011E0512E509240060E94EA10B401A30173
S1132CD080910705909108050E944D02E091070537
S1132CE0F091080585A5882309F44AC080813C96A3
S1132CF08550E80FF11DB4EFAB2EBFEFBB2EAE0E27
S1132D00BF1ED5018C913B9701914191C0805527FD
S1132D1066277727762F652F542F44279927AA27CC
S1132D20BB27B82FAA2799278827112722273327BB
S1132D30980111270027802B912BA22BB32BDD2484
S1132D40EE24FF248C299D29AE29BF29482B592B19
S1132D506A2B7B2B4619570968097909C5010E941A
S1132D60D401C098E0910705F09108056081655091
S1132D70772724E0A50180E090E00E940C10C09A1F
S1132D80E0910705F0910805818185FF02C050920A
S1132D90CB020E94750C87B78F7E87BFE091070531
S1132DA0F091080581818770813029F4B401A30171
S1132DB0CF010E944D02849962C0109240060E9485
S1132DC0EF10E0910705F0910805818185FF0DC0A2
S1132DD087E090E09093B3028093B20260E071E0E8
S1132DE080E090E00E941D0B03C080E00E94530D20
S1132DF0849B45C08091B402882321F511E010938F
S1132E0040060E94EA1080914106883098F4E091CF
S1132E10CD05E80FFF27E770F070EE0FFF1FEE0FF0
S1132E20FF1FEF53F84F60827182828293828F5F1B
S1132E30809341061093B402D0934A07C093490784
S1132E4084991DC0109240060E94EF101092B402A3
S1132E508091490790914A07C81BD90B2A9778F4A7
S1132E6080914106882319F0815080934106809116
S1132E70070590910805009711F00E94490D4FBE77
S1132E80FF91EF91DF91CF91BF91AF919F918F917E
S1132E907F916F915F914F913F912F911F910F916E
S1132EA0FF90EF90DF90CF90BF90AF909F908F9066
S1132EB07F906F905F904F900F900FBE0F901F9078
S1132EC0189578941F920F920FB60F9211242F9396
S1132ED03F938F939F932FB7F894332780913A04AD
S1132EE090913B04019690933B0480933A042FBF46
S1132EF09F918F913F912F910F900FBE0F901F9034
S1132F0018951F920F920FB60F9211240F900FBEB7
S1132F100F901F9018951F920F920FB60F921124C5
S1132F202F933F934F935F936F937F938F939F93CD
S1132F30AF93BF93EF93FF9389B78D7F89BF8EE1E2
S1132F400E946402FF91EF91BF91AF919F918F9185
S1132F507F916F915F914F913F912F910F900FBE91
S1132F600F901F9018951F920F920FB60F92112475
S1132F700F900FBE0F901F9018951F920F920FB6CF
S1132F800F9211240F900FBE0F901F9018951F924F
S1132F900F920FB60F9211240F900FBE0F901F9037
S1132FA018951F920F920FB60F9211240F900FBE17
S1132FB00F901F9018951F920F920FB60F92112425
S1132FC02F933F934F935F936F937F938F939F932D
S1132FD0AF93BF93EF93FF938091A9049091AA04B8
S1132FE0019719F40E94B50C05C08091BC078F5F4E
S1132FF08093BC07FF91EF91BF91AF919F918F9107
S11330007F916F915F914F913F912F910F900FBEE0
S11330100F901F9018951F920F920FB60F921124C4
S11330200F900FBE0F901F9018951F920F920FB61E
S11330300F9211242F933F934F935F936F937F933A
S11330408F939F93AF93BF93EF93FF932FB1E0912F
S11330501703F0911803309739F080913C04909154
S11330603D04E80FF91F208380913C0490913D04B6
S1133070019690933D0480933C0480E00E94A9074C
S11330804091E7065091E80680913C0490913D04FC
S11330908417950718F40E949A081CC060911703BE
S11330A070911803809112059091130510921803E2
S11330B01092170310921305109212051092E8064D
S11330C01092E70610923D0410923C042FB120E0C8
S11330D00E94570EFF91EF91BF91AF919F918F91F5
S11330E07F916F915F914F913F912F910F900FBE00
S11330F00F901F9018959EE79093210390933803A7
S1133100E9E0F0E0F0932303E093220399279093FE
S11331102503809324036093260340932703A8E2A6
S1133120B3E0F90180E101900D928150E1F76091E3
S11331305F0781E293E00E94350608958F929F9283
S1133140AF92BF92CF92DF92EF92FF920F931F93B1
S1133150CF93DF93CDB7DEB760970FB6F894DEBF99
S11331600FBECDBF4B015C01CC24DD24EFECF2E0BB
S11331707C2D608561FFEAC02081318142815381C9
S1133180E480F58006811781D501C401821B930B6D
S1133190A40BB50B8E159F05A007B10708F4D6C084
S11331A060FF03C06D7F608708C02E0D3F1D401F68
S11331B0511F20833183428353837330C1F07430B1
S11331C030F4713059F0723009F0C9C05DC0743008
S11331D009F45DC0753009F0C2C094C082E08093E8
S11331E0140382E18093DE050E94B302B8C080918B
S11331F048078F5F809348078F3F11F41092480768
S11332009091480780911903981709F0A8C08091FC
S1133210BB0299279F938F938091680290916902D2
S11332209F938F9380E091E09F938F938DEA95E035
S11332309F938F930E94742A8091BB022DB73EB74F
S1133240285F3F4F0FB6F8943EBF0FBE2DBF8630A8
S1133250B8F48F5F8093BB028630B0F0FE013196E4
S113326080E1DF011D928A95E9F79F0140E065E165
S11332708091DE050E947B188EE10E94B0066FC02B
S11332801092BB021092B6020E94AE0268C09FB7B1
S1133290F8942091BF02222319F421E030E00FC0FA
S11332A080918502823019F020E030E008C040E0CF
S11332B050E02150223010F441E050E09A01892F6F
S11332C099278FBF222309F44AC08FB7F894082F97
S11332D01127902F80918502823091F48091BF0252
S11332E0813019F40E94A90209C0823049F4809106
S11332F016058093850283E08093BF020FBF2FC021
S11333009FBF2DC08091BE079091BF078530910566
S113331099F08E31910519F0039709F503C01092C5
S1133320BC021DC01092BC0240E050E061E08091FC
S11333308E070E94070613C01092BC0240E050E0C2
S113334061E080918E070E94180609C00894C11C90
S1133350D11C3996B6E0CB16D10409F009CF0E94EE
S1133360C70260960FB6F894DEBF0FBECDBFDF91E3
S1133370CF911F910F91FF90EF90DF90CF90BF906E
S1133380AF909F908F9008951F920F920FB60F9257
S113339011242F933F934F935F936F937F938F9356
S11333A09F93AF93BF93EF93FF9380919B0087FF0D
S11333B0D5C150919C008091CA02882321F45E37C4
S11333C009F0CCC106C02091C902233050F45E3705
S11333D041F481E08093CA025093E0058093C902CE
S11333E0BDC1E22FFF27E052FA4F50832F5F209395
S11333F0C9024091E105433051F580915F072817D8
S113340009F09CC11092CA025E3709F09FC18091F5
S1133410E3058093DE05863021F0893011F08D308C
S113342081F48AE0809314038091DE058D3061F489
S11334308FEF809319031092480789E10E94640278
S113344003C082E0809314030E94B30281C142301E
S113345009F04CC080915F07281709F06FC11092E2
S1133460CA025E3709F072C140931D03E09138042B
S1133470F0913904809114038083E0913804F09131
S113348039048091DE058183E0913804F091390498
S11334908091EB049091EC04938382838091E705FF
S11334A09091E805958384838091E9059091EA05DC
S11334B0978386838091EB059091EC0591878087B3
S11334C08091ED059091EE05938782878091EF05B9
S11334D09091F005958784878091F1059091F2058C
S11334E09787868780911D03825F23C1493009F045
S11334F0A2C080915F07281709F020C11092CA0268
S11335005E3709F023C182E080931D038091DE05BC
S11335108D30F9F48091E505833109F019C180916A
S11335206802909169029F938F9389E191E09F9340
S11335308F938DEA95E09F938F930E94742A2DB701
S11335403EB72A5F3F4F0FB6F8943EBF0FBE2DBF64
S1133550FFC0893069F4AFEEB4E0E0EEF5E088E155
S113356001900D928150E1F78AE10E946402F0C05B
S11335708E3029F0843019F0853009F0E9C0E091EB
S11335803804F0913904809114038083E091380465
S1133590F09139048091DE058183E0913804F09143
S11335A039048091EB049091EC049383828380919D
S11335B0E7059091E805958384838091E9059091CE
S11335C0EA05978386838091EB059091EC059187BA
S11335D080878091ED059091EE0593878287809195
S11335E0EF059091F005958784878091F10590917E
S11335F0F2059787868780911D03825F80931D0360
S113360080916802909169029F938F9380E391E087
S11336109F938F938DEA95E09F938F930E94742AD2
S11336200E94BD028DB79EB706960FB6F8949EBF52
S11336300FBE8DBF8DC0413019F04A3009F088C0EB
S11336408091DF04281709F079C01092CA025E370E
S113365009F07CC082E080931D03E0913804F0916E
S11336603904809114038083E0913804F091390483
S11336708091DE0581838091DE058D3009F040C0A4
S11336801092BB028FEF809319038091E50599276F
S11336909F938F9380916802909169029F938F9377
S11336A08AE491E09F938F938DEA95E09F938F93A3
S11336B00E94742A9091E5052DB73EB7285F3F4FCD
S11336C00FB6F8943EBF0FBE2DBF903F19F4109271
S11336D0B60216C08091E7058A3029F48091E80586
S11336E08A3A59F406C08A3A41F48091E8058A304E
S11336F021F484E00E94B00603C09F5F9093B60259
S1133700E0913804F09139048091E6058283809138
S11337103804909139044091E605552767EE75E029
S113372003960E944D2A90911D039F5F8091E605A8
S1133730890F80931D030E94BD020AC09927029736
S113374033278217930724F45E3711F41092CA02C8
S11337508091C902813610F01092CA02FF91EF9154
S1133760BF91AF919F918F917F916F915F914F9195
S11337703F912F910F900FBE0F901F90189580913D
S1133780AA028C3118F04CE150E002C0482F5527B2
S11337908CE1E7EBF4E011928A95E9F79091AA02A3
S11337A08091A80220E030E0A7EBB4E00FC0E82F3E
S11337B0FF27E45CFC4FE081992329F08F5F8A3F67
S11337C009F480E09150ED932F5F3F4F24173507A4
S11337D071F79093AA028093A8024CE16BEA74E01B
S11337E08FEF9FEF0E942007882311F00E948B0225
S11337F00895882379F4442359F48091AA028823F4
S113380019F00E94BF1B089581E08093AB020895D4
S11338100E948B020895EF92FF920F931F93CF9310
S1133820DF93182F7B01042FE82FFF27EE0FFF1FD4
S1133830EE5EFC4F1182108210927102A09112036D
S1133840B0911303109721F08091830780FF08C083
S113385081E08093710217C087E00E94640213C064
S1133860FD01359624813327ED016D817727762F6D
S1133870662781819927682B792BAD0186810E9467
S1133880CD06882349F7402FB701812F0E94F91BE9
S1133890DF91CF911F910F91FF90EF9008958FB713
S11338A0F894282F33278091AB02823021F42FBF64
S11338B080E090E0089590E08091AA02882309F4C2
S11338C091E0992321F02FBF81E090E0089582E0F8
S11338D08093AB022FBF0E94BF1B80E090E008954D
S11338E05698579810921E031092E504539A549ACE
S11338F0579A8091AB02882309F086C087E892E04A
S11339009093E7078093E6078FB7F894992721E00F
S11339102093AB028FBF68EE73E08DE297E00E94C4
S1133920C60160916802709169028FE297E00E947B
S1133930C60160E070E081E397E00E94C60189E17E
S113394095E0909339048093380482E080931403C3
S113395082E18093DE0588EB9BE09093EC048093F6
S1133960EB041092B7021092B8021092B9021092AE
S1133970BA021092BB021092C4021092C6021092B4
S1133980C5021092C8021092C70280919A00886002
S113399080939A0080919A00806180939A0080912C
S11339A09B00806480939B0080919A008064809344
S11339B09A0080919A00806880939A0098E190938D
S11339C05F0788E48093DF04E1E2F3E02EE72093CD
S11339D061052093A805DF011D929A95E9F72093CC
S11339E0210383E090E090932303809322032093A8
S11339F0380368E1CF010E94350640EA5FE060E0E9
S1133A0070E081E00E947D040895EF92FF920F938D
S1133A101F93CF93DF930FB7F89411270E94EF10F1
S1133A2051E0E52EF12CF092B302E092B202109232
S1133A30B4021092CB02109282070FBF0FB7F89412
S1133A4011270E94070DF092AA04E092A904109293
S1133A50370489B78F7B89BF80E488BF8AB78062C7
S1133A608ABF8AB78F7E8ABF89B7806489BF0FBF38
S1133A708FB7F894C82FDD278091AD029091AE02E4
S1133A80049711F40E942C0DCFBF0FB7F89411279F
S1133A90C09A80E00E94270C0FBF82E00E94E701D9
S1133AA081E691E09F938F930E945D2A0E944F1CB0
S1133AB00F900F90DF91CF911F910F91FF90EF9096
S1133AC008951F938091E0028D7F8093E00210910E
S1133AD0DE0580E791E09F938F930E945D2A0E9408
S1133AE04F1C0F900F90113159F083E891E09F9390
S1133AF08F930E945D2A0E944F1C0F900F9050C01C
S1133B0086E091E190939F0480939E049093EB064A
S1133B108093EA061092ED061092EC061092EF06DE
S1133B201092EE061092F1061092F00661E081E028
S1133B300E9466078823D9F48FB7F894282F332777
S1133B408091AD029091AE02892B11F02FBF17C066
S1133B5081E090E09093AE028093AD022FBFDD9A96
S1133B6064E170E080E090E00E94F60A08C082E020
S1133B700E949D07882319F481E00E949D0784EF29
S1133B8091E09093EC048093EB048091E9028D7FA3
S1133B908093E90264EF71E080E090E00E94AA065D
S1133BA01F910895CF93DF93A0EAB4E0EDE1F5E02F
S1133BB086E001900D928150E1F782E290E09F93BC
S1133BC08F9380916802909169029F938F9381EA09
S1133BD091E09F938F930E945D2A8091A404909119
S1133BE0A5049F938F938091A2049091A3049F9323
S1133BF08F938091A0049091A1049F938F9384EC60
S1133C0091E09F938F930E945D2A0E944F1C209104
S1133C10EC063091ED068091A0049091A104281B3C
S1133C20390B37FF03C0309521953F4F6091EE0665
S1133C307091EF068091A2049091A304681B790B04
S1133C4077FF03C0709561957F4F620F731F2091BA
S1133C50F0063091F1068091A4049091A504281BEC
S1133C60390B37FF03C0309521953F4F620F731F07
S1133C708091E0048F5F8093E00481509927880F3E
S1133C80991F8D5C984F0E94C6018091A004909169
S1133C90A1049093ED068093EC068091A204909188
S1133CA0A3049093EF068093EE068091A404909170
S1133CB0A5049093F1068093F0068DB79EB70E96F7
S1133CC00FB6F8949EBF0FBE8DBF8091E0048A307A
S1133CD009F069C08091E107882309F04CC0A1E58F
S1133CE0B6E0EBE2F7E08CE101900D928150E1F750
S1133CF0C5E4D6E06FEF7FEFCE0106960E94CD01BA
S1133D0083E98093500680911A0390911B03892BB9
S1133D1061F5D0931B03C0931A0389E2809345068F
S1133D20809172028823E9F060914C067727762F00
S1133D30662780914B069927682B792B1092720283
S1133D402CE1AE0183E90E947F09982F882349F072
S1133D5081E08093720210921B0310921A0399233C
S1133D6021F481E08093E10706C08091E107882374
S1133D7011F40E94240A1092E004809142068823E0
S1133D8081F4609131077727762F66278091320777
S1133D909927682B792B6F5F7F4F81E397E00E940F
S1133DA0C601109242060E942D0ADF91CF91089518
S1133DB08F929F92AF92BF92CF92DF92EF92FF9237
S1133DC00F931F93CF93DF93E82FFF27E632F1057C
S1133DD010F00C947926EA5BFF4FEE0FFF1F05905D
S1133DE0F491E02D099480918307882309F021C17F
S1133DF00C94792680913604882309F056C10C94DA
S1133E0079268FB7F89410920A0520917C0740E038
S1133E10283009F441E030E0293009F431E044234A
S1133E2011F4332351F010927C07E0917D07FF27B2
S1133E30EE0FFF1FEA52FA4F108299278FBF4423D7
S1133E4011F4332329F18091D1058F5F8093D1053B
S1133E50809184078334A1F49FB7F8942091860756
S1133E6080918507821741F0822F8F5F80938607A8
S1133E70863010F010928607892F99278FBF0CC0C7
S1133E80EE24442311F411E0E12EB1E0FB2E06C030
S1133E90222311F010E053C0EE24FF248FB7F894CE
S1133EA09927209196028FBF222341F08FB7F8946F
S1133EB099272AE020937C078FBF2DC08FB7F894F1
S1133EC099271091D6050091D8058FBF0E94000252
S1133ED08823F1F41123E1F41FB7F89482E080936E
S1133EE0D6050E940002882311F080E006C0E0910C
S1133EF08607FF27EB57F84F82818093D705812FE0
S1133F0099278FBF83E48093840710927D070BC0A9
S1133F100150023010F010E007C085E4809384075C
S1133F2081E080937D0711E0FF2049F08FB7F8947A
S1133F309927E0929F028FBF84E00E9464028091DF
S1133F407C078A3019F40E94F410D3C6112309F4B3
S1133F50D0C62FB7F89433271092600510925F05EE
S1133F601092AB0581E080937C072FBF0E944C1117
S1133F70882309F4BEC68FB7F894992729E02093C3
S1133F807C078FBF0E94BA06B4C60E94701CB1C6DB
S1133F9083E059C6539854988FB7F8949927109290
S1133FA0AB0225C110929C0210929B028FB7F89429
S1133FB0992740919F028FBF8091A002811143E015
S1133FC02091990230919A028091A102882309F0EC
S1133FD090C680917102882309F08BC66091120308
S1133FE0709113036217730709F083C64EC08FB72D
S1133FF0F89499272091A4023091A5024091A70436
S11340008FBF8FB7F894E42FFF27EE0FFF1FE559FA
S1134010FD4F3183208320919702442311F02B7F9D
S113402001C02D7F209397021092A20299278FBF7F
S113403060C6E1E0FE2E00E010E0C2E1D3E0909122
S113404083078F2D892369F0688179811982188209
S11340508F2D809598239093830743E0802F0E94AF
S1134060F91B0F5F1F4F22960830110509F441C652
S1134070FF0CE5CF80917102E82FFF27EE0FFF1FA1
S1134080EE5EFC4F6081718141E00E940B1C31C6E1
S11340904CE16BEA74E08FEF9FEF0E9420078823C6
S11340A009F427C60E948B0224C661E0F62E00E0C4
S11340B010E0CAE1D3E0909136048F2D892369F092
S11340C068817981198218828F2D80959823909325
S11340D0360443E0802F0E9484100F5F1F4F229606
S11340E00830110509F405C6FF0CE5CF8091720272
S11340F0E82FFF27EE0FFF1FE65EFC4F6081718102
S113410041E053C00E94051DF4C580E00E94E70110
S1134110F0C58FB7F8949927F090AC028FBF83E075
S11341200E949D07882351F10FB7F894112710922C
S1134130B3021092B20287B78F7E87BF87B78F7D95
S113414087BF0E94700CC09A0FBF0FB7F894112755
S11341501092AA041092A9040E94070DC09A89B76C
S11341608F7B89BF0FBF1092AE021092AD02DE9812
S1134170DD98DE9A8CE00E94640203C082E00E9413
S1134180E701C091B807D091B9070E947B098091DB
S11341907202882309F0ADC560911A0370911B0364
S11341A06C177D0709F0A5C54F2D0E949910A1C574
S11341B08FB7F894282F3327122F8091A6048823D1
S11341C0F9F481E08093A6048091AD029091AE024F
S11341D0049721F481E00E94F90702C00E94900232
S11341E01FBF87C58FB7F89499271092A6041FCFD5
S11341F08FB7F894282F33278091AF02882311F0CA
S11342002FBF77C52FBF80B3992746E09695879532
S11342104A95E1F7182F11709091060380915C057F
S11342208917D1F01917C1F484E090E09093AE029D
S11342308093AD028FB7F894992721E02093AF02C1
S11342408FBF80E090E00E9494080E944B10C09AB7
S1134250C0988BE00E94640210935C050E94950252
S113426048C58FB7F8949927209173028FBF2230E5
S113427009F45EC0233030F4222359F0213009F0D0
S113428038C541C0233009F46DC0243009F031C56C
S113429096C0C0988FB7F894C82FDD278091AD02DF
S11342A09091AE02029769F583E090E09093AE029C
S11342B08093AD0288E190E00E94940881E08093AD
S11342C006031092AF0280B3992736E0969587953E
S11342D03A95E1F78170907080935C050E94950295
S11342E081E00E94130D6FE772E08CE10E946F0879
S11342F00E94C10F0E94D20F66E57AE287E10E9414
S11343006F08CFBFF6C4C09886E00E94130D0E94C8
S1134310C10F0E94D20F0E944B10C09AC0980E94F5
S11343202C0DC09A81E00E94270C0E949002E1C4E7
S1134330C0988FB7F894C82FDD270E949707882369
S113434011F0CFBF0AC0CFBF83E50E946B0880E0A5
S11343500E946B0880E00E946B08C09A82E00E9471
S1134360270CC7C48FB7F89499272091B2028FBF46
S1134370243039F0283041F02230F1F40E9437091A
S1134380B8C40E94040EB5C4C0980E94310DC09AEE
S11343900E94750C2FB7F894332781E090E0909336
S11343A0B3028093B2022FBF63E08091070590911E
S11343B008050E949A029DC40E94750C9AC40E942A
S11343C0AC0C97C40FB7F89411274091E7065091AD
S11343D0E80660911703709118038091120590917B
S11343E013051092180310921703109213051092DC
S11343F012051092E8061092E70610923D041092FE
S11344003C0420E00E94570E0FBF73C42FB7F894EA
S11344103327809144068093760282E08093B10230
S11344202FBF80917602882309F063C4B89AC0989C
S11344300E94A4025EC4A091CC02B091CD021C9152
S1134440FD01E10FF11D8081881F8827881FED0180
S11344508BA780818F7789A73197808188A7E09186
S1134460CC02F091CD028FB7F89499272091A8043B
S11344708FBF2223F9F0878146812FB7F894332721
S113448060918F07709190072FBF9927982F8827E5
S11344905527842B952B8617970761F087812681F2
S11344A09927982F88273327822B932B8F5F9F4F31
S11344B009F0CDC01D3008F4CAC0C091CC02D0911F
S11344C0CD028A858F3309F0BEC089852885992756
S11344D0582F44273327422B532B6B818FEF809324
S11344E0BB078FB7F894782F20E030E0EDE4F7E0D5
S11344F0808191818417950729F48281861731F18F
S11345002093BB072F5F3F4F33962430310581F74B
S11345107FBF9091BB073FB7F8949F3F21F08091F4
S1134520B5028917A9F42091B502822F9927FC01BD
S1134530EE0FFF1FE80FF91FE35BF84F5183408331
S113454062832F5F23702093B5020EC07FBF7BC0B0
S1134550892F9927FC01EE0FFF1FE80FF91FE35B7A
S1134560F84F518340836283832F99278FBF8BA594
S1134570882309F468C08F814E812FB7F8943327BC
S113458060917702709178022FBF9927982F88271E
S11345905527842B952B8617970761F08F812E81E1
S11345A09927982F88273327822B932B8F5F9F4F30
S11345B009F049C08B85833909F045C00E942D0A52
S11345C08C852D859927782F66273327622B732BAB
S11345D080912B079927982F882720912C07332720
S11345E0822B932B8617970790F48BE297E00E9417
S11345F0C6016E858F857727762F66279927682BC6
S1134600792B8DE297E00E94C6011092E0048A891A
S11346102B899927782F66273327622B732B809158
S113462031079927982F8827209132073327822B27
S1134630932B8617970738F481E397E00E94C6010D
S113464081E080934206D093CD02C093CC028FB711
S1134650F8949927109237048FBF0E94D40C49C351
S113466080910503882319F520915B0730915C073D
S113467040915D0750915E07EFB7F894FF27609172
S1134680DA057091DB058091DC059091DD05E09001
S11346902707F09028070091290710912A076E0D2B
S11346A07F1D801F911FEFBF00E00E94A40B0E949A
S11346B07A0443C00E947A046B017C018FB7F8949A
S11346C099271092F2068FBF1FEF812E1FEF912EB4
S11346D01FEFA12E1FE7B12E60E0EFECF2E0808522
S11346E081FF1CC080819181A281B381A7019601C1
S11346F0281B390B4A0B5B0BDA01C9012481358174
S113470046815781281B390B4A0B5B0B2815390549
S11347104A055B051CF449015A0161E0399633E00E
S1134720E530F307E1F6662309F4E3C2181419042B
S11347301A041B042CF0C701B6010E949E18D9C2AA
S113474001E0A5019401C701B6010E94A40BD1C2E6
S11347500E94611DCEC20E94D21DCBC28091F20282
S11347608D7F8093F20244E650E060E070E083E0E5
S11347700E948C06BEC22091DE05223101F582E141
S113478090E09F938F9380916802909169029F9328
S11347908F9389ED91E09F938F938DEA95E09F939A
S11347A08F930E94742A0E94F7054DB75EB7485F45
S11347B05F4F0FB6F8945EBF0FBE4DBF9AC226304E
S11347C019F02D3009F045C08091B60299279F93C6
S11347D08F93822F99279F938F9380916802909152
S11347E069029F938F938CEE91E09F938F938DEA50
S11347F095E09F938F930E94742A8DB79EB70A9673
S11348000FB6F8949EBF0FBE8DBF8091DE058D302C
S113481019F484E00E94B0064091B6022091DE05AE
S11348208EE780932103809338038AE090E090938D
S113483023038093220333273093250320932403F7
S11348404093260360915F0781E293E00E9435065E
S113485050C2293009F44DC2822F99279F938F9318
S113486080916802909169029F938F9387E092E010
S11348709F938F938DEA95E09F938F930E94742A60
S11348808091DE050E947306CDB7DEB728960FB679
S1134890F894DEBF0FBECDBF2CC28091610790910A
S11348A06207029761F580916307909164079F9373
S11348B08F9380916802909169029F938F938AE10C
S11348C092E09F938F938DEA95E09F938F930E943C
S11348D0742AEDB7FEB738960FB6F894FEBF0FBE34
S11348E0EDBF8091630790916407429719F40E9489
S11348F0F705FFC18091DE050E947306FAC180911D
S11349006007882309F042C06091630770916407CF
S11349108091EB049091EC048617970769F07093EB
S1134920EC046093EB048091E9028D7F8093E902AB
S1134930882799270E94AA068091630790916407AB
S11349409F938F938091620799279F938F93809170
S1134950610799279F938F938091680290916902D0
S11349609F938F938EE292E09F938F938DEA95E0CD
S11349709F938F930E94742A2DB73EB7245F3F4FB5
S11349800FB6F8943EBF0FBE2DBFB3C1809166072A
S113499099279F938F938091650799279F938F936E
S11349A080916307909164079F938F93809168022D
S11349B0909169029F938F938BE492E09F938F93DE
S11349C08DEA95E09F938F930E94742A8091DE056F
S11349D04DB75EB7445F5F4F0FB6F8945EBF0FBE2E
S11349E04DBF893069F530916607209165078EE7E0
S11349F0809321038093380389E090E0909323030C
S1134A008093220390932503809324032093260309
S1134A1030932703A8E2B3E0E7E6F7E080E10190F2
S1134A200D928150E1F760915F0781E293E00E946B
S1134A3035068AE090E0909323038093220359C1C2
S1134A4027E637E040916607609165070E947B186E
S1134A5050C182E080931D03E0913804F091390441
S1134A60809114038083E0913804F091390480919B
S1134A70DE058183E0913804F09139048091EB04E0
S1134A809091EC049383828380917A0290917B02CB
S1134A909583848380917C0290917D0297838683A1
S1134AA080917E0290917F0291878087809180021D
S1134AB090918102938782871586148617861686BD
S1134AC080911D03825F80931D030E94BD0211C16A
S1134AD08091BC02882309F40CC1809104038D7F6A
S1134AE0809304030E94DD049927D82FCC270E94C9
S1134AF0DD049927C82BD92B0E94DD040E94F304FE
S1134B008091BE079091BF078330910521F00597EE
S1134B1009F0EFC009C01092BC02AE0160E08091C0
S1134B208E070E940706E5C01092BC02AE0160E049
S1134B3080918E070E941806DCC08091BE07909178
S1134B40BF078630910531F0079709F0D2C0109263
S1134B50BC02CFC01092BC021092BE02CAC08091A7
S1134B60C102813011F40E949C048FB7F8949927F4
S1134B701092C1021092C0023ACB8FB7F8949927D1
S1134B80209116052093850223E02093BF028FBF56
S1134B9020918502222321F0213009F0AAC026C0E9
S1134BA080918202882319F484E090E09CC0809173
S1134BB0BC02882309F095C081E08093BC0283E0A5
S1134BC090E09093BF078093BE0710928E070E94D7
S1134BD0F8049927182F882309F48BC00E94B40580
S1134BE060E070E0812F0E94FD0583C08091820205
S1134BF0882319F484E090E07AC08091BC02882371
S1134C0009F073C02093BC0285E090E09093BF0745
S1134C108093BE0720938E070E94F8049927182FCB
S1134C20882309F466C00E94AF0560E070E0812F1C
S1134C300E94A8035EC00E949C045BC08898909860
S1134C408998919880E20E94640253C08FB7F894C7
S1134C509927209117052093860223E02093C3020D
S1134C608FBF80918602882319F0813039F403C004
S1134C70A19AA99A08C0A19AA99A07C0882319F0F1
S1134C808130B9F502C080E001C081E00E942804AF
S1134C9030C010924306C0911F03D091200380912D
S1134CA0E906882319F0813049F404C080E00E94A9
S1134CB0D10209C081E00E94D1020DC0882319F0FD
S1134CC08130B9F408C0D0937F02C0937E0281E0A2
S1134CD00E949B030EC0D0938102C09380028DE199
S1134CE0B2CF85E090E0182F79CF85E090E0182FBF
S1134CF09ACFDF91CF911F910F91FF90EF90DF90AA
S1134D00CF90BF90AF909F908F9008950E943602ED
S1134D108F3F19F480E090E008950E94D81E81E04E
S1134D2090E008951F920F920FB60F9211242F93C3
S1134D303F934F935F936F937F938F939F93AF931F
S1134D40BF93EF93FF9344B155B178948FB7F89420
S1134D5099272091B707322F3695317021708FBF74
S1134D602223D9F4339880914306813021F0823094
S1134D7009F039C00AC0332351F050932003409303
S1134D801F0385E20E9464022EC0332319F40E949B
S1134D90B20329C01092430626C08FB7F89499270E
S1134DA08FBF2FB7F894332786B1582F5770482FE9
S1134DB04072987D942B952B8074977B982B9061EF
S1134DC09F77892F992786B9887D842B852B8773B4
S1134DD08061992786B9887D842B852B877B8069A0
S1134DE0992786B92FBFFF91EF91BF91AF919F9102
S1134DF08F917F916F915F914F913F912F910F9080
S1134E000FBE0F901F9018951F920F920FB60F921E
S1134E1011248F9383B783BF00B600FCFDCF8F911D
S1134E200F900FBE0F901F9018951F93182F80910D
S1134E30AB02813049F48091AA028C3828F082E0D8
S1134E408093AB020E94BF1B8FB7F894282F33279F
S1134E509091AA029A3FA8F48091A902E82FFF2713
S1134E60E45CFC4F10838F5F8093A9028A3F11F4A6
S1134E701092A9029F5F9093AA022FBF80E090E056
S1134E8003C02FBF8FEF9FEF1F910895CFEFD0E1A5
S1134E90DEBFCDBFFFB6F89446E250E06FEF70E09E
S1134EA081E997E00E94562A8FEF80938D078093C3
S1134EB0BA0781E08EBD88E080BF83E083BF8CB5F4
S1134EC09DB54AE72CB53DB52817390708F441507C
S1134ED0442311F0C901F6CF92B782B78917E9F3D9
S1134EE02CB53DB592B782B78917E9F38CB59DB55A
S1134EF0821B930B409635E0969587953A95E1F79A
S1134F009093D5058093D40513BE83B78EBD8EB51B
S1134F1080BF12BE1DBC1CBC8FEF86BF86B78093BA
S1134F207C0080B7992787709070892BD1F7D29A2B
S1134F30D19AD09ADA9AD99AD89A15BA8FEF84BBB3
S1134F40D498DC9816B81DBC1CBC87B7846087BF96
S1134F508EB5887F84608EBD10928900109288007F
S1134F6080917D00846080937D0080918A00887F99
S1134F70826080938A0080E285BF0E94862688230F
S1134F80E1F710923B0342E050E06FEF70E085E1FF
S1134F9093E00E94562AEDE4F7E08FEF9FEF9183B0
S1134FA080831282339627E0E935F207C1F70E9425
S1134FB0680D8093CE0280916802909169020196F7
S1134FC0AA27BB278093E1049093E204A093E3040F
S1134FD0B093E40480B7886080BF8BE083BF86EE23
S1134FE081BF87B7826087BF0E94200B83EF96E062
S1134FF09093CD028093CC028E98B89A8C988FEFC0
S11350008093C00710920B0510920C0510920D05A9
S113501010920E05B89AD69AD59A8FB7F894992714
S113502020917702309178028FBF309390072093BC
S11350308F0780917902992790935E0580935D058F
S11350408FE1809310058AE18093770781E0809354
S1135050A804109280078093E6041092090512E0D8
S113506006E060E071EE80E090E00E94210289B9E0
S1135070292F3327209390001BB9009395001AB869
S1135080809399002093980010939B0000939D00B7
S113509010929A0084E490E09093AA058093A90565
S11350A01092D6051092D80510927C071092AB0589
S11350B0109284071092D1051092600510925F053A
S11350C010920A0510927D070E9410021092860722
S11350D0109285070E9486268823E1F78F2D992751
S11350E08FBF789481E00E9464028FB7F894082FF0
S11350F0112749C087B7992783709070892B19F4B9
S1135100E5E0F0E013C080B7992787709070892B91
S1135110D1F781B792B7891B8C3030F082B7853FC5
S113512018F4E3E0F0E002C0E2E0F0E087B7887B47
S1135130C1F480917D008B7FA1F46E9912C08AB175
S113514090919A00892B807C61F48091740082FD97
S113515008C0379B03C081E090E005C085E090E083
S113516002C080E090E025B78E1708F4E82FFF27EF
S1135170E852FD4FC895E02D237E2062E22BE5BF67
S113518078948895F8940E9436028F3F09F4B2CF40
S11351900FBF0E94D81EA9CFACE2B0E0E2EDF8E266
S11351A00C94FD2D222E332E442E552E662E772E52
S11351B0882E992EFE013196A8E01192AA95E9F75E
S11351C029823A824B825C826D827E828F829886AB
S11351D0FE013996B8E01192BA95E9F7A986BA8624
S11351E0CB86DC86ED86FE860F87188B89819A81B3
S11351F0AB81BC8189A79AA7ABA7BCA77C018D0111
S11352008FEF9FEFA0E0B0E0E822F9220A231B23EE
S113521089A59AA5ABA5BCA51D014424552489855F
S11352209A85AB85BC858DA39EA3AFA3B8A75C016B
S11352306D018FEF9FEFA0E0B0E0A822B922CA224F
S1135240DB228DA19EA1AFA1B8A53D01882499249C
S1135250C801B701A60195010E94DE2D69A37AA3B6
S11352608BA39CA3C801B701A40193010E94DE2D66
S11352707B018C01C201B101A60195010E94DE2DC2
S11352805B016C01C201B101A40193010E94DE2DF6
S11352903B014C01EA0CFB1C0C1D1D1D89A19AA1AC
S11352A0ABA1BCA19D01442755272E0D3F1D401FD6
S11352B0511F2A153B054C055D0540F480E090E044
S11352C0A1E0B0E0680E791E8A1E9B1ECA01AA27BF
S11352D0BB27860D971DA81DB91D8D8F9E8FAF8F7F
S11352E0B8A3A9013327222789A19AA1ABA1BCA104
S11352F0A070B070280F391F4A1F5B1F298F3A8F87
S11353004B8F5C8FA98CBA8CCB8CDC8CED8CFE8C97
S11353100F8D18A1FE01719698E011929A95E9F704
S1135320ED8AFE8A0F8B188F2D813E814F8158851F
S11353306DA17EA18FA198A50E94DE2D3B014C0199
S11353402D853E854F85588969A57AA58BA59CA591
S11353500E94DE2D2D893E894F89588D260F371FD7
S1135360481F591F260D371D481D591D2D8B3E8B77
S11353704F8B588F6D887E888F88988C2A2D3B2D73
S11353804C2D5D2D662D772D882D992DE2E1AC965F
S11353900C94192EA0E1B0E0E0EDF9E20C94FD2D9F
S11353A0222E332E442E552E662E772E882E992E9D
S11353B0002309F466C088E0FE01319611928A95B3
S11353C0E9F729833A834B835C836D837E838F82E1
S11353D09887E0E2E01B1E16CCF52D813E814F81BB
S11353E05885602F772767FD7095DA01C901062E6D
S11353F004C0B695A795979587950A94D2F78D879B
S11354009E87AF87B88B04C0220F331F441F551FDC
S1135410EA95D2F789819A81AB81BC8104C0B695A3
S1135420A795979587956A95D2F7282B392B4A2B00
S11354305B2B29873A874B875C8729843A844B8482
S11354405C846D847E848F8498881BC01D861E8630
S11354501F86188A2E2F332727FD309530952195E6
S11354603F4F8D819E81AF81B88504C0B695A795C5
S1135470979587952A95D2F789879A87AB87BC87B2
S1135480DCCF222D332D442D552D662D772D882DDF
S1135490992DE2E160960C94192EFB01DC0102C007
S11354A001900D9241505040D8F70895DC0101C09D
S11354B06D9341505040E0F70895A2E0B0E0E3E678
S11354C0FAE20C940D2EFE01379661917191FA83E4
S11354D0E983AF018091E6079091E7070E94992A3A
S11354E0E2E022960C94292EA0E1B0E0EAE7FAE289
S11354F00C940B2E0F89188D86E08E831C830B83EE
S11355008FEF9FE798878F83AE01455E5F4F5A8385
S11355104983698D7A8DCE0103960E94992A298543
S11355203A85020F131FF8011082E4E060960C9490
S1135530272EA4E1B0E0EFE9FAE20C94FD2DCC248F
S1135540DD2476011C017C8B6B8B2A01FC01178204
S11355501682838181FD03C08FEF9FEF8AC2AA2444
S1135560BB2473C2A0FE58C28A8980538A30E8F4EF
S1135570FA89F03341F42D85222329F4A3FC03C0D6
S113558080E091E06FC08AE0ED85E802C00111245B
S1135590FA89F80FF053FD87F7FF02C02FE72D8734
S11355A0A3FC4DC23D853E874AC2C50188709070F8
S11355B0A3FE05C0ED85EE2311F4F1E0FD872A89F1
S11355C0283624F525360CF05BC0233509F480C059
S11355D024358CF42B32C1F12C3234F42032C1F155
S11355E0233209F00EC23CC03A893D32B1F13E3259
S11355F009F007C23AC08A89833609F449C084365F
S11356000CF081C0883509F0FCC11BC0EA89E03781
S113561009F4A3C0E13744F4EC3669F1EF3671F0D4
S1135620E93609F0EEC16FC0FA89F53709F49DC077
S1135630F83739F0F33709F0E4C134C028E0298B96
S113564094C030E1398B91C080E190E0A82AB92A56
S1135650E0E2F0E0AE2ABF2AF2C120E830E00DC05B
S113566080E490E0A82AB92AEAC1E8E0F0E0AE2A92
S1135670BF2A1D86E4C124E030E0A22AB32ADFC198
S11356804FE3C42E3E8531503E8783E68A8B44C166
S1135690F201C080FE85F150FE8722E030E0420E28
S11356A0531E3AC1F201C080D180892B49F0FD8597
S11356B06F2F772767FD7095C6010E94512D19C081
S11356C0F60101900020E9F73197EC19E98B12C03B
S11356D0F201C080D180892B49F0FD856F2F772797
S11356E067FD7095C6010E94462D03C0C6010E9445
S11356F03D2D898B22E030E0420E531E3E85898980
S1135700381B3E8709C1A2FE08C0F2018081918145
S1135710A281B38124E030E009C0F201808191814B
S1135720AA2797FDA095BA2F22E030E0420E531E1F
S11357306C017D01B7FF0CC082E090E0A82AB92A71
S1135740F094E094D094C094C11CD11CE11CF11CD1
S1135750EFEBFFEFAE22BF2221C020E430E0A22A0B
S1135760B32A38E73A8B80E1898BA2FE08C0F201A4
S113577080819181A281B38124E030E007C0F201ED
S113578080819181AA27BB2722E030E0420E531E7C
S11357906C017D018FEC9FEFA822B922870176016D
S11357A0FE013196F88BEF87F9896F2E77248824D0
S11357B09924C801B701A40193010E94BC2D6A3049
S11357C024F02A89620F615201C0605DEF85F88977
S11357D06193F88BEF87C801B701A40193010E947C
S11357E0BC2D79018A01211531054105510509F7BF
S11357F0CC24DD247601CE010196CF84C81AC501DC
S113580082739070892B19F0FE85F150FE87A6FEF5
S113581009C02989203111F482E001C081E03E856C
S1135820381B3E8738E0832E912C8A209B20A3FED0
S11358301BC08D85282F332727FD30958C2D992764
S11358408217930754F0E7EFFFEFAE22BF2228E060
S1135850822E912C8A209B2007C0FD85FC19FD8790
S11358602E852F1B2E8703C03E853C193E87C5011C
S113587080789170892B69F48E8506C0B10180E22D
S113588090E00E945C2D812F182F11501816B4F34C
S11358901E87A1FE04C0B1018DE290E00BC0A4FEFE
S11358A004C0B1018BE290E005C0A5FE05C0B101C2
S11358B080E290E00E945C2DA6FE10C0B10180E35E
S11358C090E00E945C2D8989803141F4B101EA891C
S11358D08E2F992787FD90950E945C2DB0FE0DC0F8
S11358E08E8506C0B10180E390E00E945C2D812F7B
S11358F0182F11501816B4F31E87892869F02D85C6
S113590006C0B10180E390E00E945C2D212F122F8C
S113591011501216B4F31D8790E8692E712C6A2079
S11359207B20A7FC0DC08E8506C0B10180E290E00B
S11359300E945C2D812F182F11501816B4F31E8766
S1135940FA89F33641F4B1018C2D992787FD90959E
S11359500E945C2D46C02A892337B1F446015601C2
S1135960198909C0F50181915F01B101992787FD6A
S113597090950E945C2D1150A8F76401F989CF0E0F
S1135980D11C2FEF298B2DC03A89333519F00F859F
S1135990188920C046018601B98809C0F801C89554
S11359A0802DB10199270E945C2D0F5F1F4FBA947F
S11359B0FFEFBF1699F764012989C20ED11CF98B38
S11359C010C0F80182918F01B101992787FD90954C
S11359D00E945C2DCE0101960817190791F7188BC8
S11359E00F876728B1F08E8506C0B10180E290E090
S11359F00E945C2D812F182F11501816B4F31E87A6
S1135A0008C0B101FA898F2F992787FD90950E94CC
S1135A105C2DAA24BB2413C02A89253241F43AE020
S1135A20398B1E861D8681E0A82EB12C08C0B101D9
S1135A30EA898E2F992787FD90950E945C2D2B89EA
S1135A403C892F5F3F4F3C8B2B8BF101838183FF7C
S1135A5005C0EB89FC89C895F02D03C0EB89FC894E
S1135A60F081FA8B2A89222309F07CCDF101868109
S1135A709781E2E164960C94192EFC0105900020B4
S1135A80E9F7809590958E0F9F1F0895FC0105906E
S1135A90615070400110D8F7809590958E0F9F1F2C
S1135AA00895FC016150704001900110D8F7809571
S1135AB090958E0F9F1F08950F931F93CF93DF939D
S1135AC08C01EB018B81992781FF1BC082FF0DC0E4
S1135AD02E813F818C819D812817390764F4E881E8
S1135AE0F9810193F983E88306C0E885F985802F5D
S1135AF00995892B31F48E819F8101969F838E8332
S1135B0002C00FEF1FEFC801DF91CF911F910F91DA
S1135B100895991B79E004C0991F961708F0961B05
S1135B20881F7A95C9F780950895AA1BBB1B51E17C
S1135B3007C0AA1FBB1FA617B70710F0A61BB70BF9
S1135B40881F991F5A95A9F780959095BC01CD019E
S1135B50089597FB092E07260AD077FD04D0E5DFC8
S1135B6006D000201AF4709561957F4F0895F6F7DA
S1135B70909581959F4F0895A1E21A2EAA1BBB1BF5
S1135B80FD010DC0AA1FBB1FEE1FFF1FA217B30705
S1135B90E407F50720F0A21BB30BE40BF50B661F1B
S1135BA0771F881F991F1A9469F7609570958095DF
S1135BB090959B01AC01BD01CF010895629FD00176
S1135BC0739FF001829FE00DF11D649FE00DF11DB4
S1135BD0929FF00D839FF00D749FF00D659FF00D63
S1135BE09927729FB00DE11DF91F639FB00DE11D50
S1135BF0F91FBD01CF01112408952F923F924F92B6
S1135C005F926F927F928F929F92AF92BF92CF9248
S1135C10DF92EF92FF920F931F93CF93DF93CDB751
S1135C20DEB7CA1BDB0B0FB6F894DEBF0FBECDBFC9
S1135C3009942A88398848885F846E847D848C849A
S1135C409B84AA84B984C884DF80EE80FD800C81A3
S1135C501B81AA81B981CE0FD11D0FB6F894DEBF86
S10D5C600FBECDBFED010895FFCF84
S1135C6A256420433332385F52657365745F54691F
S1135C7A6D65723A25640D0A00256420726563769F
S1135C8A20535542434D44315F4641494C0D0A0065
S1135C9A256420726563762070617273696E675F2A
S1135CAA636F6E74726F6C0D0A00256420706172E2
S1135CBA73696E675F6C6F6E6744543A25640D0AA4
S1135CCA000A526164696F205374617274656400D6
S1135CDA0A57656C6C636F6D204D6F74696F6E2023
